:020000040800F2
:10000000A0AB0120E1020008694300089D38000808
:10001000654300080514000845470008000000007B
:10002000000000000000000000000000E1430008A4
:100030004514000800000000714300080D4400084A
:10004000FB020008FB020008FB020008FB0200089C
:10005000FB020008FB020008FB020008FB0200088C
:10006000FB020008FB020008FB020008FB0200087C
:10007000FB020008FB020008FB020008FB0200086C
:10008000FB020008FB020008FB020008FB0200085C
:10009000FB020008FB020008FB020008FB0200084C
:1000A000FB020008FB020008FB020008FB0200083C
:1000B000FB020008FB020008F5440008FB020008F0
:1000C000FB020008FB020008FB020008FB0200081C
:1000D000FB020008FB020008FB020008FB0200080C
:1000E000FB020008FB020008FB020008FB020008FC
:1000F000FB020008FB020008FB020008FB020008EC
:10010000FB020008FB020008FB020008FB020008DB
:10011000FB020008FB020008FB0200081D45000866
:1001200009140008151400082D140008FB0200082B
:10013000FB020008FB020008FB020008FB020008AB
:10014000FB020008FB020008FB020008FB0200089B
:10015000FB020008FB020008FB020008FB0200088B
:10016000FB020008FB020008FB020008FB0200087B
:10017000FB020008FB020008FB0200080000000070
:10018000FB020008FB02000800F002F800F099F8FA
:1001900014A696E8000CB244B344DA4501D100F04D
:1001A00090F8BAE80F000FA696E83000A5EB04051A
:1001B00004EB0607AAEB0704A7F101074FEA1515A0
:1001C0004FEA3414A4F10104AC4201D300F079F8F1
:1001D00013F0010F18BFFB1A43F0010300F001F800
:1001E000DBE71847E0D7040000D804000A444FF0CA
:1001F000000C10F8013B13F0070408BF10F8014B86
:100200001D1108BF10F8015B641E05D010F8016BCA
:10021000641E01F8016BF9D113F0080F1EBF10F82E
:10022000014BAD1C0C1B09D16D1E58BF01F801CB51
:10023000FAD505E014F8016B01F8016B6D1EF9D5D4
:100240009142D6D37047000070470000002300247D
:1002500000250026103A28BF78C1FBD8520728BFD6
:1002600030C148BF0B6070476E2900F07F81702954
:1002700000F0EE81662904F02EA4642900F03A8192
:100280000368DB0928BF41F08001732900F0E9868B
:10029000F32900F00F87002070471FB544F00EFCD3
:1002A00000F038FF04000020002143F08FFE401CC6
:1002B00060600020002143F073FEE0601FBD10B5B8
:1002C00010BD01F02BF81146FFF7E7FF37F0A4FE51
:1002D00001F049F803B4FFF7F2FF03BC06F0E6FFB4
:1002E0000948804709480047FEE7FEE7FEE7FEE7CA
:1002F000FEE7FEE7FEE7FEE7FEE7FEE70448054906
:10030000054A064B70470000E144000889010008D7
:10031000A06B0120A0AB0120A08B0120A08B0120AD
:10032000704753EA020C00F069802DE9F04B4FF062
:100330000006002B1FBFB3FA83F503FA05F424FA75
:1003400005F65E4012BF1643B2FA82F502FA05F4D2
:10035000C5F120051EBF22FA05FC44EA0C04203535
:1003600056EA044C4FEA144418BF641C4FF00008CE
:100370004FF00009904271EB030C39D3002919BFEB
:10038000B1FA81F701FA07F6B0FA80F700FA07F63A
:10039000C7F120071EBF20FA07FC46EA0C062037EB
:1003A000B6FBF4FCA7EB0507103F07F01F0BCBF1E2
:1003B00020062CFA06F60CFA0BFB44BFB3460026C7
:1003C000202FA4BF5E464FF0000B5BEA060C08BF6F
:1003D0004FF0010B19EB0B0948EB0608ABFB027C55
:1003E00006FB02CC0BFB03CCC01B71EB0C01C1E77D
:1003F0000B46024641464846BDE8F08B13B508431C
:1004000018BF4FF0FF300146AFF30080BDE81C403D
:10041000704700000FB4044910B503AA029800F019
:1004200025FE10BC5DF814FB981D00200FB41CB510
:10043000074B06AA7B4469460090059800F0E7FD4B
:100440000020694600F0F6FD1CBC5DF814FB0000BE
:10045000FD0B000070B5044685690068C10601D532
:10046000302600E02026C00707D070BDD4E9012166
:1004700030469047206A401C20626D1EF6D570BD44
:1004800070B5044685690078C00707D170BDD4E90E
:10049000012120209047206A401C20626D1EF6D565
:1004A00070BD70B50C460546012A05D02878800637
:1004B00000D5EA69002302E0012305E05B1C9342BA
:1004C00002D2E05C0028F9D1A869E618C01AA86138
:1004D000286A184428622846FFF7BCFF04E0D5E9E3
:1004E000012114F8010B9047B442F8D32846FFF7D6
:1004F000C7FF70BD2DE9F04106460024106875293C
:10050000314616A510D0AFF30080002802DA404231
:1005100013A507E031688A0701D512A502E0490753
:1005200004D511A5012401E0AFF3008000210A22C7
:1005300006F1240709E0B0FBF2FCB0FBF2F302FB8A
:100540001C00303078541846491C0028F3D123464B
:100550002A463046BDE8F04100F0ECBA0000000049
:100560002D0000002B000000200000001168026830
:10057000006A530501D508700AE0D30501D508804B
:1005800006E0130603D5C217C1E9000200E00860C7
:10059000012070472DE9FF5F15468A460446DFF8C3
:1005A000AC80F8440027D8E900103E46CDE90010A1
:1005B00010E03AF816106A4602A800F07FFD411CD0
:1005C00007D02178890603D5E269391891420DD800
:1005D0000744761C2078800602D5E069B84205DD24
:1005E000AE42E6DB3AF816000028E2D1A069C01B53
:1005F000A0612046FFF72EFFD8E90010CDE90010DA
:10060000002017E03AF818106A4602A800F056FDDC
:10061000B0F1FF3F81460BD000250DF1080B05E03E
:10062000D4E901211BF8050090476D1C4D45F7D317
:1006300008F10100B0428046E4DB206A38442062C1
:100640002046FFF71DFFBDE8FF9F00003645040070
:10065000F0B4136802680824C4610C4642F020021A
:100660000260110502D50E4A7A4402E00C4A7A442F
:100670000E32002100F1240505E003F00F061B09EE
:10068000965D6E54491C002BF7D105782D0703D5D4
:10069000702C01D101231032F0BC00F04BBA0000E5
:1006A000784404002DE9F05F894604464FF0000AC3
:1006B000DFF874B1FB44C0F820A02046E168884709
:1006C000002874D0252806D0D4E901219047206A5B
:1006D000401C2062F1E700265F462046E16888471B
:1006E0002028054607DB312D05D2781910F8200C9B
:1006F00008B10643F1E7B00701D526F00406C4F8B7
:100700001CA00027C4F818A02A2D09D0284643F0C1
:100710003FFC38B304EB8708303DC8F8185019E0A7
:1007200059F8041B204604EB87029161E168884771
:10073000012F054618D1E069002820DA26F02006AE
:100740001DE0D8F8180000EB800005EB40003038C1
:10075000C8F818002046E1688847054643F018FCB1
:100760000028EED1012F0AD02E2D08D12046E168B5
:1007700088477F1C0546022F46F02006C4DBA0698F
:10078000002803DA404246F00106A061F00701D0DC
:1007900026F010066C2D0BD0682D09D04C2D39D0C9
:1007A0006A2D35D0742D35D07A2D33D016E038E04F
:1007B000E1682F4620468847B842054609D16C2F8C
:1007C00026D04FF48060E1680643204688470546FE
:1007D00004E06C2F1AD04FF4807006430DB3A5F1DE
:1007E0004100192802D8203546F400664A462946B9
:1007F000204626604E46FFF737FD80B101280BD01A
:10080000F61D26F0070000F1080956E74020E4E74E
:100810008020D8E70020D6E706F104094DE72846F6
:1008200052E7206ABDE8F09F5444040040EA010307
:1008300010B59B070FD1042A0DD310C808C9121F89
:100840009C42F8D020BA19BA884201D9012010BDC3
:100850004FF0FF3010BD1AB1D30703D0521C07E090
:10086000002010BD10F8013B11F8014B1B1B07D1F4
:1008700010F8013B11F8014B1B1B01D1921EF1D165
:10088000184610BD40EA0103024630B59B0710D15F
:100890004FF0013400E008C208C91D1B9D4315EA52
:1008A000C41FF8D013F0FF0102F8011B0DD01B0A82
:1008B000F8E711F8013B002B02F8013B05D011F8D5
:1008C000013B002B02F8013BF3D130BD10B5431CB6
:1008D00002E010F8011B71B18107FAD14FF001322B
:1008E00002C88C1A8C4314EAC211F9D0C01A0A0645
:1008F00003D0C01E10BDC01A10BD0A0401D0801E56
:1009000010BD0902FCD0401E10BD032A40F2308009
:1009100010F0030C00F0158011F8013BBCF1020F40
:10092000624498BF11F801CB00F8013B38BF11F8C1
:10093000013BA2F1040298BF00F801CB38BF00F8D8
:10094000013B11F0030300F02580083AC0F0088055
:1009500051F8043B083A51F804CBA0E80810F5E739
:10096000121D5CBF51F8043B40F8043BAFF300801C
:10097000D20724BF11F8013B11F801CB48BF11F891
:10098000012B24BF00F8013B00F801CB48BF00F861
:10099000012B704710B5203AC0F00B80B1E8185019
:1009A000A0E81850B1E81850A0E81850203ABFF459
:1009B000F5AF5FEA027C24BFB1E81850A0E81850F8
:1009C00044BF18C918C0BDE810405FEA827C24BF4C
:1009D00051F8043B40F8043B08BF7047D20728BFDA
:1009E00031F8023B48BF11F8012B28BF20F8023B29
:1009F00048BF00F8012B704702F0FF0343EA0322CF
:100A000042EA024200F00AB802F0FF0343EA03227E
:100A100042EA024200F024B84FF000020429C0F07C
:100A2000128010F0030C00F01B80CCF1040CBCF120
:100A3000020F18BF00F8012BA8BF20F8022BA1EB72
:100A40000C0100F00DB85FEAC17C24BF00F8012B57
:100A500000F8012B48BF00F8012B70474FF000024F
:100A600000B5134694469646203922BFA0E80C50A4
:100A7000A0E80C50B1F12001BFF4F7AF090728BF7F
:100A8000A0E80C5048BF0CC05DF804EB890028BFFB
:100A900040F8042B08BF704748BF20F8022B11F024
:100AA000804F18BF00F8012B7047000000000000C5
:100AB00030B44FF0013C50F8042B51F8043BCCFA11
:100AC00052F4D51A20D1FCB950F8042B51F8043B4C
:100AD000CCFA52F4D51A17D1B4B950F8042B51F806
:100AE000043BCCFA52F4D51A0ED16CB950F8042B51
:100AF00051F8043BCCFA52F4D51A05D1002CDAD0C7
:100B000030BC4FF00000704729BAB1FA81F111F002
:100B10001801D1F120008440F2D1CA40CB4012F03C
:100B2000FF0213F0FF0330BCD01A704770477047C4
:100B3000704770472DE9F0470D46994692460446A6
:100B400000F124080168880604D5E06921F010014D
:100B5000216000E00120A84201DD471B00E00027E2
:100B6000A1697A1902EB0900081AA0612078C00671
:100B700002D42046FFF76EFC002608E0D4E90121EC
:100B80001AF806009047206A401C761C20624E45E9
:100B9000F4DB2078C0060AD52046FFF75BFC06E0B0
:100BA000D4E9012130209047206A401C2062381E81
:100BB000A7F10107F4DC07E0D4E9012118F80500EA
:100BC0009047206A401C2062281EA5F10105F3DC35
:100BD0002046FFF755FC2078000602D50220BDE82C
:100BE000F0870120FBE72DE9FF4F0C461E464FF032
:100BF000FF378BB0D2E90001DDF860800A908A46A9
:100C0000C1F30A5505B93D46002108464FF00000E2
:100C1000BAF1000F00F4400005DA00EB80004FF459
:100C2000400101EA50004FEA9059B9F1010F00DD8F
:100C3000B9460A9850EA4A000ED044F61050A5F280
:100C4000FF3545432F14B8F1000F1ED07542291E01
:100C50001EDDC9F100021CE0B8F1010F4FF00000E9
:100C600001D0302103E0F24305E02154401CB042A2
:100C7000FBDB30460022002121540B99C1F808808B
:100C8000C1E900200FB0BDE8F08FBD1B6D1CDEE791
:100C90004A4600DA694206A800F0C6FA06AB93E8B5
:100CA000070003AB83E8070050460A9942F08FFD26
:100CB0008DE80700A0F500501F3800900398002D24
:100CC0000ADD42F21F014A460844002303A90390AB
:100CD000684642F0F9FF09E0A0F500504A461F3887
:100CE000002303A90390684643F003F88DE807004A
:100CF0000004000C03D04FF0FF30410800E0104624
:100D0000B8F1000F03D00022009215461EE0751EB8
:100D100005D400F003FA303262556D1EF9D5B346A2
:100D20000122084302D000227F1C04E020783028F2
:100D300001D100227F1E002A099784D01DE0112DC9
:100D400007DA00F0EBF9303262556D1C50EA01020F
:100D5000F5D1084302D00098C8B10EE00021681E0A
:100D600005E0235C625C63542254401E491C8142AE
:100D7000F7DBAB46A81B401E0990002004F80B00CF
:100D80000B98099AC0F80880C0E9002B7AE7112671
:100D90004FF0000857E72DE9F04F88460446D21D72
:100DA00022F0070191B0D1E90001CDE90A0143F039
:100DB000D7F802460B98C00F01D02D2007E020681D
:100DC000810701D52B2002E0202101EAC000032A7F
:100DD000099001D0072A05DB03464146204600F072
:100DE000E3F90BE12078800601D5E06900E00620F8
:100DF000B8F1650F814606D0B8F1660F18D0B8F18A
:100E0000670F70D131E00020B9F1110F009001DBC4
:100E1000112301E009F101030AAA01A90CA8FFF7B7
:100E2000E2FEDDE90C70002609F10105834647E08A
:100E300001204B4600904FF000470AAA01A90CA8D8
:100E4000FFF7D1FEDDE90DB00C995D46002610B923
:100E500009F101000D18B9EB050003D4C0F1FF360C
:100E600009F10105A5EB09002BE0B9F1010F01DA49
:100E70004FF001090020B9F1110F0090484601DD43
:100E8000112300E003460AAA01A90CA8FFF7ABFE54
:100E9000DDE90C704D4600268346207800070AD411
:100EA000AB4500DA5D4601A8012D04DD411911F8BA
:100EB000011C302907D04F4502DA17F1040F04DA7C
:100EC000012082460FE06D1EEEE7002F02DCED1BD5
:100ED0003E4403E0781CA84200DD7D1CB81B00F1F5
:100EE000010A4FF000472078000703D4AA4501DB30
:100EF0004FF0FF3A0021B7F1004F0DF143088DF894
:100F0000431024D002202B23002F01DA7F422D230F
:100F10000A21021EA0F1010000DC5FB197FBF1FC89
:100F200097FBF1F201FB1C7C17460CF1300C08F822
:100F300001CDEEE7A8F1010003702188090501D574
:100F4000452100E06521A0F1010800F8011C099885
:100F50000FA9A1EB0807FF1D00B10120411901EB0A
:100F6000EA70A1693844081A401EA0612078C006C2
:100F700002D42046FFF76EFA099828B1D4E901217E
:100F80009047206A401C20622078C00622D5204667
:100F9000FFF760FA1EE0002E04DBB34502DD01A876
:100FA000805D00E03020D4E901219047206A401C98
:100FB0002062761CAAF101005FEA000A0AD100F063
:100FC000A9F8C0680168405CD4E901219047206A13
:100FD000401C2062281EA5F10105DCDC07E0D4E9F5
:100FE000012118F8010B9047206A401C2062381E2E
:100FF000A7F10107F3DC2046FFF742FA032011B006
:1010000041E6000001694A1C02610878704700B59A
:101010008FB0CDE901310021059105497944CDE931
:10102000031011466846FFF73DFB0FB000BD0000FE
:10103000E5FFFFFF0A6802F8010B0A60704710B570
:10104000436913B1AFF3008001E0FFF72AFA0120F2
:1010500010BD127800F124010A7000224A700122AA
:10106000EDE711684FF0FF32E9E70000074B70B57C
:101070000D467B44FFF7CBFF0446284600F046F9B7
:1010800010B14FF0FF3070BD204670BDAFC60000FC
:1010900010B5436913B1AFF3008001E0FFF77AFAAE
:1010A000012010BD128800F1240182840022C28434
:1010B0000122EDE711684FF0FF32E9E72DE9F04139
:1010C00016460C46054600F01DF8036893F801012A
:1010D000012807D0FF2C12D8185D80B101202C7098
:1010E000BDE8F081D3F807013246214603F2071329
:1010F000C7182846BC46BDE8F041002360474FF0C2
:10110000FF30EDE710B500F005F8001D10BD00BF81
:10111000BD2E040000487047A819002030B5B0F17A
:101120000A0271F100034FEA900E4EEA817EB0EBA5
:101130000E0061EB91014FEA101E4EEA017E10EBAA
:101140000E0041EB11114FEA102E4EEA016E10EB2A
:101150000E0041EB11214FEA104E4EEA014E10EB0A
:101160000E0041EB1141401841F100014FEAD0005F
:1011700040EA41704FEAD1014FEA810444EA907499
:1011800010EB800544EB01046D1944EB0404521B81
:10119000A3414FF0000348BF0A3200D530BD401CC8
:1011A00041F1000130BD00002DE9F0411F46044629
:1011B00003260168072A01F4006004DB08B116A5C4
:1011C00005E016A503E008B115A500E015A521F07E
:1011D00010002060A069C01EA0610FB1401EA06178
:1011E0002046FFF737F94FB1D4E90121384690473F
:1011F000206A401C2062C01C206206E0206AFAE7D8
:10120000D4E9012115F8010B9047761EF8D220464B
:10121000FFF736F9BDE8F0814E414E006E616E0079
:10122000494E4600696E66002DE9F0478146164634
:101230008AB0354878440DC88DE80D0032487844AE
:10124000801C03AC0DC884E80D0041F69B300844B7
:10125000372190FBF1F290FBF1F5A5F1800501FB40
:1012600012041B3C02D56442012000E00020DFF89C
:1012700098A080460027FA44AAF1BE0A0EE0E007D3
:101280000AD03246684607EB470101230AEB810189
:1012900042F02FFD8DE8070064107F1C002CEED17A
:1012A000194F7F44AE3F19E0E80715D007EB041053
:1012B0000DF1180A90E80E008AE80E00C068F042AE
:1012C00001D1981908903246012306A903A842F0DB
:1012D00010FD03AB83E807006D10641C002DE3D103
:1012E0004FF0010332466946B8F1000F03A802D05F
:1012F00042F0EAFC01E042F0FCFCC9E90001C9F857
:1013000008200AB0BDE8F08764390400007B00F0D3
:101310008000704700487047881900207546FFF725
:10132000F9FFAE4605006946534620F007008546A2
:1013300018B020B5FEF7E2FFBDE820404FF00006F0
:101340004FF000074FF000084FF0000BAC46ACE840
:10135000C009ACE8C009ACE8C009ACE8C00921F09C
:1013600007018D46704710B50446AFF30080204654
:10137000BDE81040FEF7AEBF0146806B036C026C07
:1013800013F0500F08D0D20648BF00F0C9B9806BE7
:10139000C26C0846104700BF42F400710164016846
:1013A0008A6812F0405F01D000F084B9027E002A02
:1013B000FAD1CA6A12F4700F02D08A685205F3D4C7
:1013C0004A6822F020024A60016C21F480710164B5
:1013D000016CC90448BF00F06DB9016C41F0010116
:1013E000016400F067B90000806B40210164416C2A
:1013F00041F00401416400F093B90000806B00F0FB
:101400008DB90000FEE7000042F22810C2F2000091
:1014100000F01ABD41F60D7142F2E810C2F200016F
:101420000122C2F200000A7000F00EBD41F60C71FC
:1014300042F28810C2F200010122C2F200000A70DA
:1014400000F002BD70470000EFF3108072B600BFDD
:10145000FEE70000B3F5804F03461DD1B0B553F849
:1014600022C00020CCF6F0700CEA000E91E83100AA
:10147000D1F818C040EA0E0040EA0410C96840EAFA
:10148000052040EA0C0040EA0141BDE8B0400020E0
:1014900043F82210704700BF6FF07041002043F8FE
:1014A000221070472DE9F04F83B00B68024650F8C8
:1014B000230001F1240B20F0010042F82300D1E9C0
:1014C00002C0D1E900E301908869D1E9049A029051
:1014D000C86BD1E9077600909BE83008D1F83080DE
:1014E00052F82E008021CFF6F0710840BCF1080FB1
:1014F00008BF43F040030199194341EA090141EA59
:101500000A01394331432143294341EA0B01029B3C
:1015100041EA08011943009B1943084340EA0C01C2
:10152000002042F82E1003B0BDE8F08FF0B500EBBC
:1015300082025068D1E902E400F0404CD1E9003069
:10154000D1E9045643EA0C03002743EA0010CFF622
:10155000F07740EA0E20896907EB055540EA044020
:101560002843FE36084340EA066100205160F0BD82
:1015700070B581B00022009290F83C20012A03D17E
:10158000022001B070BD00BFD1F800E00122BEF121
:101590000A0F1FFA8EFC80F83C2009D34FEA4C0258
:1015A000036812FA8EF2A2F11E0403F10C0204E0A9
:1015B00003680EEB4E0403F1100207251668A540E0
:1015C00026EA050515608D68166805FA04F43443AB
:1015D00014604968062907D801EB81014A1F1946A2
:1015E00051F8345F0FE000BF0C2901EB810105D8F1
:1015F000A1F12302194651F8305F04E0A1F1410244
:10160000194651F82C5F1F24944025EA04040C600D
:101610000CFA02F20C6842F2043CC4F2010C2243C0
:10162000ACF54174A3420A603ED1BEF1120F07D15E
:10163000DCF8001041F48001CCF8001034E000BF69
:101640002EF0010110292FD1DCF80010BEF1100F8F
:1016500041F40001CCF8001026D140F2EC01C2F2B6
:10166000000109684DF68362C4F21B32A1FB02122D
:10167000910C01EB8101490000910099A1B1009901
:1016800001390091009979B10099013900910099CF
:1016900051B1009901390091009929B1009901399E
:1016A000009100990029EAD1002180F83C10002027
:1016B00001B070BD80B582B0006842F20002C4F291
:1016C000010200219042019102D002B080BD00BF12
:1016D0000EA0FEF79FFE41F6E810C2F2000000687F
:1016E0000028F2D001A941F0A5FA01980028ECD019
:1016F0004EF60450CEF200004FF080510160BFF36F
:101700004F8FBFF36F8F02B080BD00BF53656D6117
:1017100070686F7265206769766500007047000029
:1017200070470000002804BF0120704710B5016C0D
:1017300000293DD0016CC90645D4016C41F202126A
:101740009143023142F204320164C4F20102116891
:1017500021F440311160136890E812102343D0F84F
:1017600010E013604A68012422F480724A604A68DB
:10177000C0F6007442EA0E224A604A6822F04072C3
:101780004A604A6842EA0C024A608A6822F40062AF
:101790008A60C2688B681A438A60826A8B68A24238
:1017A00023F070638B608B6810D123F0405216E0F9
:1017B000044600F065F820460021616484F83C107E
:1017C000016CC906B9D5012153E000BF1A438A60F4
:1017D0008A6822F040528A60C26A8B681A438A6023
:1017E0008A6822F002028A608A68037E90F82040AC
:1017F00042EA43028A604A6884B142F400624A6065
:101800004A684EF2000322F460424A60426ACFF610
:10181000FF734C6803EB4232224301E022F4006282
:101820004A60CA6A40F2000C22F47002CA62C369BC
:101830004269CFF6F07CCC6A0CEB03532343CB62B6
:101840008B6823F400738B6090F830308C6844EA26
:1018500043238B608B6823F480638B608B6843EA3F
:1018600082228A6000214164026C012363F3010239
:101870000264002280F83C20BDE810400846704712
:1018800070B586B00446006842F20021C4F201013E
:1018900000268842CDE90466CDE90266019675D03E
:1018A00042F20011C4F2010188423FD042F200012D
:1018B000C4F20101884240F0B38043F63000009644
:1018C000C4F20200416941F480714161416901F44F
:1018D0008071009100990096016841F0010101605A
:1018E000006801A900F0010000900098022001901A
:1018F0000320CDE902060020C4F2020000F09EFCA5
:1019000042F2281546F21040C2F20005C4F202006D
:101910004FF48061C5E9000605F110004FF4006244
:101920004FF40053C5E902660EC06BE043F6300089
:101930000096C4F20200416941F4007141614169BD
:1019400001F40071009100990096016841F00101D5
:101950000160006801A900F00100009000980420D7
:1019600001900320CDE902060020C4F2020000F03D
:1019700065FC46F21040C4F2020042F28815303095
:10198000C2F200054FF000712EE000BF43F63000B8
:101990000096C4F20200416941F4806141614169ED
:1019A00001F48061009100990096016841F0010105
:1019B0000160006801A900F0010000900098082073
:1019C00001900320CDE902060020C4F2020000F0DD
:1019D00035FC46F21040C4F2020042F2E81518301D
:1019E000C2F200054FF080614FF480624FF4006353
:1019F0004FF4005C28606960AE60EE602A616B6144
:101A0000C5F818C04FF44030EE61C5E90806284615
:101A100000F0FCFA002818BFFFF716FDA563AC63C1
:101A200006B070BDB0B582B00023019390F83C3091
:101A3000012B03D1022002B0B0BD00BF8E460123AE
:101A4000016880F83C308B689446DB0729D18B68AD
:101A50004DF6836443F001038B6040F2EC03C2F265
:101A600000031B68C4F21B34A3FB0434A30C03EB78
:101A700043030193019BA3B1019B013B0193019B94
:101A80007BB1019B013B0193019B53B1019B013B46
:101A90000193019B2BB1019B013B0193019B002B07
:101AA000EAD18B68DB0503D58B6823F480738B60E8
:101AB0008C68036CE4070BD143F0100101644430DF
:101AC0000121026811430160002002B0B0BD00BFD7
:101AD00040F20174A34303F5807303644B685B0514
:101AE00004D5036C012464F30D330364046C0023F8
:101AF000E4044FF0000444BF446C24F00604446442
:101B000080F83C30836B41F2793441F2FD32C0F60B
:101B10000004C0F60002C3E90F4241F2E932C0F608
:101B20000002DA646FF022020A604A6842F204346A
:101B300042F080624A608A68054642F480728A6098
:101B40004C31184672466346C4F2010400F010FBA3
:101B500021682868C90607D0A4F54171884227D0BA
:101B6000002002B0B0BD00BF42F20001C4F201018A
:101B7000884215D042F20021C4F2010188420CD003
:101B800042F20011C4F201018842E9D12168C9067C
:101B900006D0A4F582718842E2D12168C906DFD45B
:101BA00050F8081F11F0405FDAD14FF0804188E70C
:101BB0004FF60450CFF6FF70205810F0405FCFD1A1
:101BC000A4F53F704FF080417BE7000090F83C1097
:101BD000012904BF02207047B0B50121026880F8D6
:101BE0003C109168002421F0010191609168C907BF
:101BF0004FF0000123D1916821F480719160816BD5
:101C000091F83520022A0BD10546084600F0D4F899
:101C100040B12A6C0146284642F040022A6403E0A3
:101C2000002101E0002128460268536823F0806308
:101C30005360026C41F201139A430132026480F84E
:101C40003C40BDE8B0400846704700004379012B96
:101C50004FF0020320D010B50371036802F0100E9C
:101C6000D3F800C0D1E9001440F6FE7202FA0EF279
:101C700021432CEA020201FA0EF111431960C0213E
:101C80001A6801FA0EF122EA01011960012100230C
:101C900001714371BDE8104018467047002804BF29
:101CA00001207047017941B910B500214171044606
:101CB00000F00CF82046BDE810400221017100211F
:101CC00001220161027108467047000080B586B0AC
:101CD00047F200410068C4F20001002288420592E8
:101CE000CDE903220292019202D006B080BD00BF6E
:101CF00043F630000092C4F20200036943F000533F
:101D00000361036903F000530093009B0092036892
:101D100043F001030360006800F0010000900098A8
:101D2000102001900320CDE9020201F5C63001A97F
:101D300000F084FA06B080BD81B04FF0000CCDF801
:101D400000C00068002900900098104414BF1430AF
:101D500008300090009900200B6001B0704700002F
:101D60004279012A4FF0020224D010B502710268B4
:101D700001F0100C4FF0010E14680EFA0CF323431F
:101D80001360136841B103F470113C2303FA0CF3A0
:101D9000994209D1022104E003F03C013C2903D11E
:101DA00001215368194351600121002201714271E0
:101DB000BDE810401046704770B5866D044600F0CF
:101DC00019FB94F83510022928D105462068216CAA
:101DD000026822F016020260426922F0800242612B
:101DE00009B9A16C19B1016821F00801016001680D
:101DF00021F00101016000BF20680068C00715D014
:101E000000F0F8FA401B0628F6D320206065032076
:101E100084F83500002184F8341070BD802060659E
:101E20000120002184F8341070BD00BFE06D3F2117
:101E300001FA00F0B060012084F835000020002194
:101E400084F8341070BD0000F0B581B0002100911D
:101E500040F2EC01C2F200010B68D0E9166148F2D1
:101E6000B51537680822C1F64E358A403A42A3FBC1
:101E700005350CD003681C68640708D51C6824F07D
:101E800004041C60B260426D42F00102426501220E
:101E90008A403A4208D003685B691B0604D5B260E9
:101EA000426D42F00202426504228A403A4208D062
:101EB00003681B689B0704D5B260426D42F00402C0
:101EC000426510228A403A4219D001680B681B070C
:101ED00015D5B2600B680A685B0309D4D20509D432
:101EE0000A6822F008020A60016C29B907E000BF05
:101EF000110341D4016C11B1044688472046C26DDC
:101F0000202101FA02F33B4243D001680F68FF062B
:101F10003FD5B36090F835700B68052F1CD123F0C6
:101F200016030B604B6923F080034B61036C0BB904
:101F3000836C1BB10B6823F008030B603F219140B9
:101F4000B160012180F83510016D0022002980F870
:101F5000342054D158E000BF0A685B0310D4D20586
:101F600012D40A6822F010020A60012180F83510AC
:101F7000002180F8341007E0816C0029BCD1BEE755
:101F8000110301D4416C00E0C16B11B104468847D4
:101F90002046416DC1B3416DC9072ED0052180F89F
:101FA00035100168AA0A0B6823F001030B60009B3F
:101FB0000133934200931AD80B68DB0717D0009BBC
:101FC00001339342009312D80B68DB070FD0009BBC
:101FD0000133934200930AD80B68DB0707D0009BBC
:101FE00001339342009302D80B68DB07DFD1012154
:101FF00080F83510002180F83410C16C21B101B097
:10200000BDE8F040084700BF01B0F0BD2DE9F04148
:10201000044600F0EFF9ECB10546022084F83500E3
:102020000020216884F83400086820F0010008606E
:1020300021680868C00711D000F0DCF9401B0528B2
:10204000F6D9032520230320636584F83550BDE8C5
:10205000F08100BF0120BDE8F08100BF086848F2B0
:102060003F02CFF21002D4E9013500EA020C04F17C
:102070000C0898E8C10143EA0C032B431843D4E948
:10208000072E304338431043626A40EA0E00042AA8
:1020900040EA08031CD1206BD4E90A2E40EA0E0066
:1020A000184308604869BEF1000F20F0030040EAC1
:1020B000020040F0040C11D0B8F5005F36D0B8F142
:1020C000000F45D1022A46D0012A3BD032B942E066
:1020D0000B60486920F0070040EA020C01F0F800AC
:1020E0004AF6AB221038CAF6AA22A0FB02231A092C
:1020F00049F2F443C1F814C0C0F604039A5C40F2FC
:10210000FF335F284FF03F0021EA030100FA02F09D
:1021100088BF0431C4E9161288600023012500201D
:10212000636584F83550BDE8F08100BF032AD5D837
:10213000012540230120DFE802F0030E030500BF64
:1021400082E700BFAEF1C070B0FA80F0400904E051
:10215000032A04D3C2D1CEF300600028BED00125EB
:1021600040230120636584F83550BDE8F08100000C
:1021700090F834C0BCF1010F04BF0220704770B565
:102180004FF0010C80F834C0D0F858E090F835C01A
:10219000BCF1010F38D14FF0020C80F835C04FF080
:1021A000000CC0F854C0D0F800C08468056CC06D45
:1021B000DCF80060402C26F48026CCF80060CCF8D7
:1021C00004300B4604BF13460A463F2101FA00F0D3
:1021D000CCF80830CCF80C20CEF80800DCF8000071
:1021E00040F01600CCF800002DB1DCF8000040F003
:1021F0000800CCF80000DCF8000040F00100CCF84A
:102200000000002070BD00BF002180F834100220C3
:1022100070BD0000B0B5044600F0ECF8054640F291
:102220000400C2F200000078611C18BF044400BF23
:1022300000F0E0F8401BA042FAD3B0BD2DE9F04F0A
:1022400083B000F1200200F13E4741F600450092C4
:1022500007F1FF77C4F2020508224FEAB726A84229
:1022600008BF072200254FF000084FF00009072E95
:1022700038BF4FEAB72201920AE000BF09F1010915
:1022800008F10208B9F1100F05F1040500F0A28071
:102290000F68012202FA09FE17EA0E0AEED0D1F801
:1022A00004C003220CF003077E1E02FA08F4012E7C
:1022B0006FEA040B12D88468CE6804EA0B0406FAAD
:1022C00008F634438460446824EA0E06CCF3001414
:1022D00004FA09F42643466004E000BF032F01D14D
:1022E00003271EE0C6688C6806EA0B0604FA08F4A9
:1022F0002643022FC66014D16FF00302009E02EA4B
:10230000590756F807C005F01C040F220B69A240BC
:102310002CEA0202A3401A43F251D1F804C00CF097
:102320000307026807FA08F302EA0B021A431CF4D7
:10233000403F0260A2D0002243F644030292C4F25E
:1023400002031A6843F6004442F480421A601A6895
:10235000C4F2010402F480420292029A29F00302BC
:102360004FF6084C2244CFF6FF7C52F80C3005F0B3
:102370000C070F26BE40B343019E06FA07F73B4306
:1023800042F80C30A2684B6842EA0A0743F60C4C4C
:10239000DE0258BF22EA0A07A760C4F2010CDCF88B
:1023A00000209E0242EA0A0758BF22EA0A07CCF838
:1023B000007062689E0342EA0A0758BF22EA0A07D1
:1023C00067602268DB0342EA0A0758BF22EA0A076D
:1023D000276053E703B0BDE8F08F000000690840B4
:1023E00018BF012070470000002A08BF090481615E
:1023F0007047000046F2A040C2F20100006870473A
:1024000040F2040046F2A041C2F20000C2F2010113
:1024100000780A68104408607047000080B543F6F1
:102420000040C4F20200016841F4007101600168DB
:1024300041F480610160016841F480710160032012
:1024400000F0B0F80F2000F005F800F04BF8002085
:1024500080BD000010B586B0014637200022002460
:1024600000F074F8372000F05FF843F64000019464
:10247000C4F20200016841F0200101600068694671
:1024800000F020000190019801A800F04DF900F043
:102490006BF94DF683614000C4F21B31A0FB0101D2
:1024A0004FF0FF3000EB914142F2683041F20042C0
:1024B000C2F20000C4F2000240F2E733C0E900219A
:1024C000C0E90243046100F0A3FC18B1012006B08A
:1024D00010BD00BF42F26830C2F2000000F0BAFD49
:1024E00006B010BD82B0002043F640010190C4F256
:1024F00002014A6842F480424A604A6802F480421B
:102500000192019A00900868002240F08050086013
:1025100008680F2100F08050009000986FF00100D3
:1025200002B000F013B80000002848BF704700F068
:102530001F01012202FA01F11C2202EAD0004EF230
:102540000012CEF2000281507047000010B54EF626
:102550000C5CCEF2000CDCF80030C3F3022E8EF0DF
:102560000704042C28BF0424BEF103034FF0FF3EF0
:102570000EFA04F438BF0023A14399400EFA03F386
:102580009A43114300F00F0200F160430901043A3D
:1025900003F564436244002848BF02F10C0319703C
:1025A00010BD00004EF60C51CEF200010A684FF645
:1025B000FF031A4060F30A2242F0806040F0FD7091
:1025C00008607047002804BF012070472DE9F041E2
:1025D00043F60808C4F202080446D8F8F8030D468A
:1025E00000F00700884207D288F8F853D8F8F803BB
:1025F00000F00700A84277D12068810717D541076E
:1026000005D5D8F8001041F4E051C8F800100107D2
:1026100005D5D8F8001041F46041C8F80010D8F88A
:102620000010A26821F0F0011143C8F80010C007A3
:1026300040D1D8F8F80300F00700A84207D988F87D
:10264000F853D8F8F80300F00700A8424CD12068EE
:10265000410707D5D8F80010E26821F4E051114392
:10266000C8F80010000708D5D8F80000216920F448
:10267000604040EAC100C8F8000000F09DF8D8F8BA
:10268000001044F6DC32C1F30311C0F60402515CC1
:1026900040F2EC0220FA01F140F20800C2F2000020
:1026A0000068C2F200021160FFF7D4FE0020BDE80E
:1026B000F08100BF6068811E022907D258F8081C0B
:1026C00089015CBF0120BDE8F08111E0012807D13C
:1026D00058F8081C89035CBF0120BDE8F08107E0C1
:1026E00058F8081C890703D40120BDE8F08100BF19
:1026F000D8F8001021F003010843C8F80000FFF7E4
:1027000079FE064641F28837D8F80000616800F08B
:102710000C00B0EB810F8CD0FFF76CFE801BB84231
:10272000F2D90320BDE8F0810F22026043F60802CF
:10273000C4F20202136803F003034360136803F05A
:10274000F0038360136803F4E053C360D2F800C061
:102750004FF4E05303EADC030361D2F8F80300F01E
:10276000070008607047000040F2EC0043F60801E3
:10277000C2F20000C4F202010068096844F6EC32BB
:10278000C1F38221C0F60402515CC84070470000CA
:1027900040F2EC0043F60801C2F20000C4F202016C
:1027A0000068096844F6EC32C1F34231C0F6040215
:1027B000515CC8407047000010B543F60404C4F2F1
:1027C0000204606800F00C0142F200400829C0F2E7
:1027D000F40007D0042918BF10BD41F20020C0F258
:1027E0007A0010BD216801F03F0221682368490288
:1027F000C3F3881106D4A1FB00010023FDF791FD6E
:1028000007E000BF41F20020C0F27A004843B0FB6D
:10281000F2F021680222C1F3014102EB4101B0FB59
:10282000F1F010BD002804BF012070472DE9F041F0
:1028300082B00446007843F60006C007C4F20206E0
:102840000CD0B06800F00C00042840F081803068A3
:10285000800303D56068002800F068812078800735
:102860001BD5B06810F00C0F09D0B06800F00C0058
:10287000082840F087807068400200F1838030684B
:10288000800703D5E068012840F050813068216955
:1028900020F0F80040EAC10030602078000713D42F
:1028A000207840072AD4A569002D00F03A81B0684D
:1028B00000F00C00082840F0A580012D40F00E81AA
:1028C000012002B0BDE8F0816069002800F082803C
:1028D0000020C4F247200121C0F8801EFFF78AFDC6
:1028E000054600BF706F8007DAD4FFF783FD401BF9
:1028F0000228F7D9032002B0BDE8F081306C5FEA0E
:10290000C0080AD400200190306C40F08050306440
:10291000306C00F080500190019847F20007C4F23B
:1029200000073868C00547D4386840F480703860C4
:10293000FFF760FD054600BF3868C0053CD4FFF7CF
:1029400059FD401B0228F7D9032002B0BDE8F081F1
:10295000B06800F00C00082803D1706840023FF511
:1029600076AF61683068B1F5803F07D0B1F5A02F30
:1029700040F09A8040F480203060306840F480302D
:1029800030609AE0E068002840F20000C4F247207E
:102990005CD001210160FFF72DFD054630688007FE
:1029A0003FF574AFFFF726FD401B0228F6D9032040
:1029B00002B0BDE8F08100BFA168306F012905D0E9
:1029C000052955D140F004003067306F40F0010018
:1029D000306756E00020C4F247200021C0F8801E76
:1029E000FFF708FD054600BF706F80077FF558AF01
:1029F000FFF700FD401B0228F6D9032002B0BDE816
:102A0000F08100BF0027C4F2472700203866FFF797
:102A1000F1FC022D05460DD13068800140F18A801D
:102A2000FFF7E8FC401B02284FF00300F4D902B086
:102A3000BDE8F0813068800173D5FFF7DBFC401BF7
:102A400002284FF00300F5D9F1E700BF0021016033
:102A5000FFF7D0FC054600BF306880077FF51DAF4B
:102A6000FFF7C8FC401B02284FF00300F4D9DEE753
:102A700020F001003067306F002920F0040030673B
:102A80007AD0FFF7B7FC054641F28837306F8007F0
:102A900000F18480FFF7AEFC401BB842F6D903205A
:102AA00002B0BDE8F08100BF20F4803030603068B3
:102AB000002920F4802030607AD0FFF79BFC054687
:102AC000306880033FF5CAAEFFF794FC401B6428D2
:102AD000F6D9032002B0BDE8F08100BF7068E1695B
:102AE00000F480028A4221D1216A00F03F028A422A
:102AF0001CD147F6C071626A0140B1EB821F15D14B
:102B0000A16A4FF6FF73C903994300F44032A1F55F
:102B100080318A420AD1E16A00F07060B0EB016F47
:102B200004D1002002B0BDE8F08100BF012002B056
:102B3000BDE8F08104F11C052FCD084340EA821066
:102B4000D9034FF6FF729143A1F5803140EA056049
:102B50000843706001203866FFF74CFC044600BF54
:102B600030688001DDD4FFF745FC001B02284FF0E0
:102B70000300F5D95BE700BFFFF73CFC054641F2D7
:102B8000883700BF306F800708D5FFF733FC401B44
:102B9000B8424FF00300F5D949E700BFB8F1000F84
:102BA0003FF581AE306C20F0805030647BE600BF92
:102BB000FFF720FC054600BF306880037FF54EAE6E
:102BC000FFF718FC401B64284FF00300F4D92EE7F0
:102BD000002804BF0120704770B5044690F84900F2
:102BE00015460E4628B9002084F84800204600F01B
:102BF0001DF8206804F10801FEF754FC2068A26863
:102C00003146FEF793FCD4E90102236B2946FEF717
:102C100021FC2068A16850F8212042F0010240F810
:102C20002120012084F84900002070BD0068B0F127
:102C3000204F18BF7047F0B585B0002143F6300033
:102C40000091C4F20200826840F6004542F00102A1
:102C500082608268C4F2020502F001020092009ACA
:102C6000009102686C4642F00802026002680C267D
:102C700002F008020092009A0091026842F01002ED
:102C80000260026802F010020092009A009102684D
:102C900042F008020260026802F008020092009A04
:102CA0000091026842F008020260026802F0080225
:102CB0000092009A0091026842F0400202600268AD
:102CC00002F040020092009A0091016841F0200158
:102CD00001600068012100F02000009000984CF293
:102CE0000370009002200190CDE902102846214691
:102CF0000496FFF7A3FA4FF68070009005F5806008
:102D00002146FFF79BFA2020009028462146049692
:102D1000FFF794FA10200090284621460496FFF70A
:102D20008DFA4FF4805705F54060214600970496D0
:102D3000FFF784FA05F50060214600970496FFF737
:102D40007DFA05B0BDE8F040704700007047000014
:102D50007047000090F83C20012A4FF0020254D046
:102D600010B580F83D200268D2F804E0D2F808C01F
:102D70000C682EF07003234341F2FF74C4F2000488
:102D8000A24253600EDC40F2FF73C4F200039A4289
:102D900016DCB2F1804F2BD040F20043C4F20003A6
:102DA00024E000BF40F2FF33C4F201039A4213DC77
:102DB00041F60003C4F200039A4219D0002313E045
:102DC00040F60003C4F200039A4211D040F60043DB
:102DD000C4F200030AE000BF44F20003C4F201039E
:102DE0009A4205D040F20043C4F201039A4204D152
:102DF00049682CF08003194391600121002280F87A
:102E00003D1080F83C20BDE810401046704700009F
:102E1000002804BF0120704710B5044690F83D001B
:102E200028B9002084F83C00204600F01FF802205A
:102E300084F83D002068211D01F076FB012084F814
:102E4000460084F83E0084F83F0084F8400084F88F
:102E5000410084F8420084F8430084F8440084F878
:102E6000450084F83D00002010BD000080B586B00C
:102E7000006840F2FF71C4F2000188424FF0000187
:102E80000591CDE90311CDE9011123DD40F60001E3
:102E9000C4F20001884233D040F20041C4F2010183
:102EA000884247D044F20041C4F2010188427DD1FA
:102EB0000020009043F64000C4F20200416841F453
:102EC00000314160406800F400300090009806B086
:102ED00080BD00BFB0F1804F3ED040F20041C4F24F
:102EE0000001884262D10020009043F64000C4F205
:102EF0000200016841F002010160006825E000BFA6
:102F00000020009043F64000C4F202000168002255
:102F100041F0040101600068052100F00400009008
:102F200000981E20FFF712FB1E2006B0BDE880406F
:102F3000FFF7FABA0020009043F64000C4F2020006
:102F4000416841F002014160406800F002000090D9
:102F5000009806B080BD00BF002043F640010090FD
:102F6000C4F202010A6842F001020A600A6802F033
:102F700001020092009A009051F8102C42F00102D8
:102F800041F8102C51F8101C01F00101009100993A
:102F9000202101910221CDE9021004900120059029
:102FA0000020C4F2020001A9FFF748F906B080BD75
:102FB00090F83D1001291CBF01207047022180F8C4
:102FC0003D10006841F2FF71C4F2000188420DDC3F
:102FD00040F2FF71C4F20001884215DCB0F1804F6D
:102FE0002AD040F20041C4F2000123E040F2FF3158
:102FF000C4F20101884213DC41F60001C4F2000171
:10300000884219D0002113E040F60001C4F200010B
:10301000884211D040F60041C4F200010AE000BF2E
:1030200044F20001C4F20101884205D040F200419F
:10303000C4F20101884206D1816801F00701062926
:1030400004BF00207047016841F0010101600020C9
:103050007047000090F83D1001291CBF0120704707
:10306000022180F83D10006841F2FF72C168C4F28D
:103070000002904241F00101C1600DDC40F2FF719D
:10308000C4F20001884215DCB0F1804F2AD040F232
:103090000041C4F2000123E040F2FF31C4F201011B
:1030A000884213DC41F60001C4F20001884219D0C5
:1030B000002113E040F60001C4F20001884211D063
:1030C00040F60041C4F200010AE000BF44F20001F2
:1030D000C4F20101884205D040F20041C4F201016E
:1030E000884206D1816801F00701062904BF00204B
:1030F0007047016841F00101016000207047000045
:1031000090F83C20012A4FF002026CD080B580F884
:103110003D20D0F800C04FF67772DCF8083023EA83
:103120000202CCF808200B684F2B29DC1F2B45DD51
:10313000202B46D0302B44D0402B40F0AF80D1F82C
:1031400004E0C968DCF82030DCF8202022F001021D
:10315000CCF82020DCF8182022F0F00242EA01111D
:1031600023F00A0242EA0E02CCF81810CCF8202014
:10317000DCF8081041F0470121F0300128E000BFE1
:103180006F2B33DDB3F5005F74D0B3F5805F21D0D2
:10319000702B40F08380D1E901E3C968DCF8082096
:1031A00043EA0E0322F47F4243EA01211143CCF8A3
:1031B0000810DCF8081041F0770109E00BB1102B82
:1031C0006CD1DCF8081021F07001194341F00701BF
:1031D000CCF808100022012180F83D10002180F871
:1031E0003C10BDE880401046704700BF502B21D0F6
:1031F000602B53D1D1F804E0C968DCF8203023F00B
:103200001003CCF82030DCF81830DCF8202023F450
:10321000704322F0A00243EA013142EA0E12CCF8D8
:103220001810CCF82020DCF8081041F0670121F0DC
:103230001001CDE7D1F804E0C968DCF82030DCF8F3
:10324000202022F00102CCF82020DCF8182022F007
:10325000F00242EA011123F00A0242EA0E02CCF81F
:103260001810CCF82020DCF8081041F0570121F0AC
:103270002001ADE7D1E901E3C968DCF8082043EAA1
:103280000E0322F47F4243EA01211143CCF80810D7
:10329000DCF8081041F480419AE700BF01229AE768
:1032A0007047000010B5016804460869800744BFF4
:1032B000C8685FEA807039D40869400744BFC868AD
:1032C0005FEA40703ED40869000744BFC8685FEAFF
:1032D000007045D40869C00644BFC8685FEAC06092
:1032E0004AD40869C0071CBFC8685FEAC07051D1E2
:1032F0000869000644BFC8685FEA006052D40869E4
:10330000400644BFC8685FEA406053D4086980063D
:1033100046BFC8685FEA806010BD6FF0200220469B
:103320000A61BDE81040FFF713BD00BF6FF0020057
:103330000861012020778869800743D02046FFF785
:10334000AFFF45E06FF00400086102202077886934
:1033500010F4407F40D02046FFF7A2FF42E000BFBC
:103360006FF00800086104202077C86980073DD00D
:103370002046FFF795FF3FE06FF01000086108203E
:103380002077C86910F4407F3AD02046FFF788FFC5
:103390003CE000BF6FF001000861204600F006FA33
:1033A0002168A5E76FF0800008612046FFF7CEFC9A
:1033B0002168A4E76FF040000861204600F000FAA1
:1033C0002168A3E7204600F025F8204600F064F9C4
:1033D0002168002020776FE7204600F01BF8204688
:1033E00000F05AF92168002020776CE7204600F0B1
:1033F00011F8204600F050F921680020207769E795
:10340000204600F007F8204600F046F92168002029
:10341000207766E77047000090F83C30012B04BF2E
:10342000022070474FEAB202032A00F2FF802DE922
:10343000F043DFE802F003B13F7F00BF036840F2D2
:1034400000461A6A43F4806522F001021A621C6A7F
:103450001A46D3F804C052F818EF8F6824F002041B
:10346000C4F20106B54244EA070405D1CF6824F04E
:103470000C0427F004073C430F68B54206D1D1E99C
:1034800005582CF440762E4346EA080C2EF07306BD
:103490003743C3F804C09F614F6809695F631C62CA
:1034A0009F6947F008079F619F6927F004079F61A4
:1034B000B1E000BF036840F200481A6A43F4806537
:1034C00022F480721A621C6A1A46D3F804C052F8B9
:1034D0001CEF8F6824F40074C4F20108454544EAE7
:1034E000072408D1CF6840F2FF463F0224F440642D
:1034F00027EA06063443D1F80090454506D1D1E9C4
:1035000005562CF440572E4347EA061C2EF073074D
:1035100047EA0907C3F804C0DF614F680969DF6340
:103520001C62DF6947F00807DF61DF6927F00407E5
:10353000DF6170E0036840F200451A6A43F4806777
:1035400022F480521A621A46D3F820C05C6852F8FE
:103550001C8FD1F800E08E68C4F20105AF4204D19F
:103560004D6924F4804444EA85142CF4005747EA5A
:10357000063728F4E64646EA0E265C60DE614E68B1
:1035800009691E641F62DF6947F40067DF61DF6954
:1035900027F48067DF613DE0036840F200481A6A63
:1035A00043F4806522F010021A621C6A1A46D3F8AE
:1035B00004C052F818EF8F6824F02004C4F2010808
:1035C000454544EA071407D1CF686FF0400624F060
:1035D000C00406EA07163443D1F80090454506D1E9
:1035E000D1E905562CF440672E4347EA860C2EF4A9
:1035F000E64747EA0927C3F804C09F614F68096995
:103600009F631C629F6947F400679F619F6927F46D
:1036100080679F6109021368194311600021BDE8AA
:10362000F043002280F83C20084670470121002228
:1036300080F83C2008467047002804BF01207047EE
:1036400010B5044690F83D0028B9002084F83C00ED
:10365000204600F01FF8022084F83D002068211D5C
:1036600000F062FF012084F8460084F83E0084F8F0
:103670003F0084F8400084F8410084F8420084F858
:10368000430084F8440084F8450084F83D0000209D
:1036900010BD00007047000070470000C1B1042950
:1036A00008D0082914BF41224022825C012A05D09B
:1036B00016E000BF3F22825C012A11D102220829B4
:1036C00010D0042914BF80F8412080F83F200BE07F
:1036D00090F83E20012A03D1022280F83E2003E028
:1036E0000120704780F84020006801F01F0101228E
:1036F000036A02FA01F123EA01020262026A11433B
:1037000041F2FF72C4F20002904201620CDC40F20E
:10371000FF71C4F20001884214DCB0F1804F37D051
:1037200040F2004116E000BF40F2FF31C4F2010157
:10373000884215DC41F60001C4F20001884227D01E
:10374000002115E040F60001C4F2000188421FD0BC
:1037500040F60041C4F20001884219D01FE000BFCA
:1037600044F20001C4F20101884211D040F200414C
:10377000C4F20101884212D1416C40F2004340F48E
:103780008062C4F2010341F400419A42416406D1CF
:10379000816801F00701062904BF00207047016815
:1037A00041F001010160002070470000006841F213
:1037B0000041C4F20001884218BF7047FEF720BEE6
:1037C00070470000002804BF0120704710B5044670
:1037D00090F83D0028B9002084F83C00204600F015
:1037E00021F8242084F83D002068C16821F40051AC
:1037F000C160204600F032FF2068016921F4904149
:103800000161416921F02A014161C16841F400511F
:10381000C16000202021206484F83D1084F83E100F
:1038200010BD000080B586B041F200010068C4F20E
:103830000101002288420592CDE903220292019201
:1038400002D006B080BD00BF43F630000092C4F243
:103850000200436943F010034361436903F010031E
:103860000093009B0092036843F00103036000682B
:1038700000F00100009000984FF4C0600190022019
:10388000CDE90202032004900720059001F5704065
:1038900001A9FEF7D3FC06B080BD0000FEE70000E2
:1038A0002DE9F04387B0002043F630010690CDE9C2
:1038B0000400CDE902000190C4F202010A6840F65A
:1038C000000442F001020A600A68C4F2020402F035
:1038D00001020192019A01900A6802AD42F00402CD
:1038E0000A600A6802F004020192019A01900A68D3
:1038F00042F008020A600A6802F008020192019A86
:103900000190086840F0400008600868294600F00F
:103910004000019001980120CDE9030003200590AB
:103920004FF4806002902046FEF788FC04F5806624
:103930008027304629460297FEF780FC204629461C
:103940000297FEF77BFC4FF0400920462946CDF850
:103950000890FEF773FC029704F580573846294615
:10396000FEF76CFC4FF40070029020462946FEF7EB
:1039700065FC4FF48078A4F500602946CDF80880F6
:10398000FEF75CFC0420029030462946FEF756FC08
:1039900030462946CDF80890FEF750FC4FF4004021
:1039A000029038462946FEF749FC4FF40060029029
:1039B00020462946FEF742FC4FF4805002902046F4
:1039C0002946FEF73BFC20462946CDF80880FEF745
:1039D00035FC40F26004C2F20004606A218D0022CE
:1039E000FEF702FDE06BB4F840100122FEF7FCFC8C
:1039F000606B218F0022FEF7F7FC606CB4F8481072
:103A00000022FEF7F1FCE06CB4F850100022FEF743
:103A1000EBFC606DB4F858100022FEF7E5FCE06D99
:103A2000B4F860100022FEF7DFFC606EB4F8681096
:103A30000022FEF7D9FC606821890022FEF7D4FC41
:103A4000E068218A0022FEF7CFFC6069218B00220A
:103A5000FEF7CAFCE069218C0022FEF7C5FC07B026
:103A6000BDE8F083000000002DE9F04F81B0FFF7C2
:103A700017FF40F26004C2F20004E06A218E0022C7
:103A80004FF0000AFEF7B0FCE06A218E0122FEF73B
:103A9000ABFCE06A218E0022FEF7A6FCC0A201204A
:103AA0000321012300F050FEBEA2032003210123C5
:103AB00000F04AFE41F68857C2F20007B889C108F3
:103AC0002C2988BF002040F057FD9FEDB10B55EC2D
:103AD000106B32462B4640F0DBFD40F0D9FC40BA7B
:103AE00004F10308ADF80000002001214246002344
:103AF00000F02AFE6A4605200221012300F024FE80
:103B00003888C1082C2988BF002040F035FD324696
:103B10002B4640F0BDFD40F0BBFC40BAADF80000C4
:103B2000002001212246002300F00EFE6A460520F7
:103B30000221012300F008FEB888C1082C2988BFA3
:103B4000002040F019FD32462B4640F0A1FD40F028
:103B50009FFC40BA04F10109ADF8000000200121EA
:103B60004A46002300F0F0FD6A46052002210123A9
:103B700000F0EAFD3889C1082C2988BF002040F0F8
:103B8000FBFC32462B4640F083FD40F081FC40BAFE
:103B900004F1020BADF80000002001215A46002379
:103BA00000F0D2FD6A4605200221012300F0CCFD81
:103BB000E06E46F20057C1F6CD57B84288BF4FF4C9
:103BC0007A7040F0D9FC9FED740B55EC106B3246C7
:103BD0002B4640F05DFD02460B4640F00DFA40F0EA
:103BE00087FC00BA0090002001212246002300F04B
:103BF000ABFD6A4604200421012300F0A5FD206FDF
:103C0000B84288BF4FF47A7040F0B6FC32462B467B
:103C100040F03EFD02460B4640F0EEF940F068FCF5
:103C200000BA0090002001214A46002300F08CFDDC
:103C30006A4604200421012300F086FD606FB8422B
:103C400088BF4FF47A7040F097FC32462B4640F024
:103C50001FFD02460B4640F0CFF940F049FC00BA88
:103C60000090002001215A46002300F06DFD6A46B5
:103C700004200421012300F067FDA06FB84288BF33
:103C80004FF47A7040F078FC32462B4640F000FD4D
:103C900002460B4640F0B0F940F02AFC00BA009012
:103CA000002001214246002300F04EFD6A46042018
:103CB0000421012300F048FD40F2DC05C2F20005BA
:103CC000A8891026BAEB902F18BF72208DF8020039
:103CD00046EA10208DF80100002001214246002311
:103CE0008DF800A000F030FD6A4606200321012374
:103CF00000F02AFD28880121BAEB902F18BF72200E
:103D00008DF8020046EA10208DF8010000202246BE
:103D100000238DF800A000F017FD6A46062003215D
:103D2000012300F011FDA8880121BAEB902F18BFE4
:103D300072208DF8020046EA10208DF80100002064
:103D40004A4600238DF800A000F0FEFC6A460620DB
:103D50000321012300F0F8FC28890121BAEB902F00
:103D600018BF72208DF8020046EA10208DF801007D
:103D700000205A4600238DF800A000F0E5FC6A46BA
:103D800006200321012300F0DFFC01B0BDE8F08F25
:103D9000000000000080963F95D626E80B2E2140BB
:103DA000AB00000000030000B0B584B042F23C005C
:103DB000C2F2000042F200014FF080534FF0006564
:103DC0000024C4F20101C0E90A53012503944FF411
:103DD0008032047680F82040C56180F8304080E869
:103DE0001600C0E903444561FDF79CFC002818BF9C
:103DF000FDF72AFB42F23C00C2F200006946CDE921
:103E000000550294FDF7B4FB002818BFFDF71CFB1A
:103E100004B0B0BDB0B584B042F28400C2F200007C
:103E200042F200114FF080534FF060650024C4F25D
:103E30000101C0E90A53012503944FF4803204764E
:103E400080F82040C56180F8304080E81600C0E965
:103E500003444561FDF766FC002818BFFDF7F4FA3E
:103E60000220CDE9000542F28400C2F2000069465A
:103E70000294FDF77DFB002818BFFDF7E5FA04B0BA
:103E8000B0BD0000B0B584B042F2CC00C2F2000078
:103E900042F200214FF080534FF000650024C4F23D
:103EA0000101C0E90A53012503944FF480320476DE
:103EB00080F82040C56180F8304080E81600C0E9F5
:103EC00003444561FDF72EFC002818BFFDF7BCFA3E
:103ED0000320CDE9000542F2CC00C2F200006946A1
:103EE0000294FDF745FB002818BFFDF7ADFA04B0BA
:103EF000B0BD000080B582B00020CDE9000042F2E4
:103F0000141047F20041C2F20000C4F20001016047
:103F1000FDF7C4FE002818BFFDF796FA42F2141010
:103F2000C2F2000069460022FDF790FE002818BF8B
:103F3000FDF78AFA02B080BD80B582B00020019002
:103F400043F63000C4F202000168002241F480010F
:103F500001600068052100F480000190019838207C
:103F6000FEF7F4FA3820FEF7DFFA392005210022A7
:103F7000FEF7ECFA3920FEF7D7FA3A2005210022A5
:103F8000FEF7E4FA3A2002B0BDE88040FEF7CCBA72
:103F9000B0B582B044F67C52C0F604020120012183
:103FA000012434F007FC41F6E815C2F20005286050
:103FB00044F2054049F2FC42C0F60000C0F604029B
:103FC000002134F053FC28614BF615700C35C0F617
:103FD000030005A14FF400720023CDE900453FF036
:103FE0003BF902B0B0BD00BF73746172745F74615D
:103FF000736B000070B586B0002543F63000059560
:10400000CDE90355CDE901550095C4F202000168E0
:1040100041F2000441F0100101600168C4F20204A1
:1040200001F010010091009900950168002241F013
:104030002001016001686C2601F0200100910099C7
:104040000095016841F080010160016801F0800184
:10405000009100990095016841F00101016000683C
:104060006C2100F00100009000982046FEF7BCF99A
:104070000120CDE9020501A9204601960495FEF72D
:10408000DDF806B070BD000070B58EB044F200459A
:1040900042F24820C4F201050021C2F200000122D0
:1040A0005323CDE90611CDE90411C0E90052C0E95E
:1040B000021301618161FEF7ABFE002818BFFDF716
:1040C000C3F942F24820C2F20000FFF7B5FA002817
:1040D00018BFFDF7B9F942F248246020C2F200048B
:1040E0000190002601A920460022CDE9026605962E
:1040F000FFF792F9002818BFFDF7A6F920680D9682
:10410000A842CDE90B660A96099601D00EB070BDA3
:10411000002043F630010890C4F202010A6842F020
:1041200020020A60096801F02001089108994021E5
:1041300009910221CDE90A100C9003200D9005F59C
:10414000504009A9FEF77AF80EB070BD10B586B0E0
:1041500042F290200024C2F200004FF080414FF064
:10416000FF32CDE90044C0E90014C0E90242046115
:104170008461FEF74DFE002818BFFDF765F94FF486
:104180000050CDE9020442F29020C2F2000002A9E0
:10419000CDE90444FEF7B4FF002818BFFDF754F939
:1041A0000020CDE9000042F29020C2F200006946F2
:1041B000FEF7D0FD002818BFFDF746F906B010BD88
:1041C00080B586B02020009042F2D82040F2004214
:1041D0000021C2F20000C4F2000204234FF0530C8D
:1041E0000591CDE903110191C0E90023C0E9021C4A
:1041F00001618161FEF70CFE002818BFFDF724F96C
:104200004FF48050029042F2D820C2F2000002A97E
:10421000FEF776FF002818BFFDF716F942F2D82006
:10422000C2F200006946FEF795FD002818BFFDF7B1
:104230000BF906B080BD000080B586B042F2203098
:1042400040F600020021C2F20000C4F2000242F275
:104250000F7342F2CF0C0591CDE90311CDE90011A6
:10426000C0E90023C0E9021C01618161FEF7D0FDB5
:10427000002818BFFDF7E8F84FF48050029042F292
:104280002030C2F2000002A9FEF73AFF002818BF52
:10429000FDF7DAF842F22030C2F200006946FEF77C
:1042A00059FD002818BFFDF7CFF806B080BD00000B
:1042B00080B586B02020009042F2B03040F200423B
:1042C0000021C2F20000C4F2010263234FF0530C3C
:1042D0000591CDE903110191C0E90023C0E9021C59
:1042E000C0E904118161FEF793FD002818BFFDF7B6
:1042F000ABF84FF48050029042F2B030C2F20000AE
:1043000002A9FEF7FDFE002818BFFDF79DF842F256
:10431000B030C2F200006946FEF71CFD002818BF4D
:10432000FDF792F806B080BD80B542F2F83041F258
:104330000001C2F20000C4F2010100234FF00C0C96
:104340004FF4E13280E80E00C0E90333C0E905C351
:10435000C361FFF737FA002808BF80BDBDE8804081
:10436000FDF772B8FEE70000FEE700000000000065
:10437000EFF30980BFF36F8F154B1A681EF0100F13
:1043800008BF20ED108A20E9F04F10602DE90900E8
:104390004FF0500080F31188BFF34F8FBFF36F8F42
:1043A0003DF094FF4FF0000080F31188BDE8090054
:1043B00019680868B0E8F04F1EF0100F08BFB0ECA5
:1043C000108A80F30988BFF36F8F704700BF00BF6A
:1043D000781C002000000000000000000000000029
:1043E000074B19680868B0E8F04F80F30988BFF3FD
:1043F0006F8F4FF0000080F31188704700BF00BF3F
:10440000781C0020012034F093F9FBE780B54EF2D0
:104410001000CEF2000000683EF08AFF012808BFBD
:1044200080BDBDE880403EF02FB9000070B592B06D
:1044300006AC20463021FCF711FB002543F6400076
:104440000595CDE90355CDE901550095C4F202006B
:104450000168022641F080510160006800F0805040
:104460000090009847F200000095C4F20000016837
:1044700041F480410160006800F4804000900098A1
:10448000012006904FF4803007904FF480000D908B
:1044900008200E904FF4A870CDE90F06042011906B
:1044A00020460C96FEF7BEF920B1EFF3108072B6ED
:1044B000FEE700BF0F20CDE901064FF4A0500490A5
:1044C0004FF48050059001A805210395FEF77AF876
:1044D00020B1EFF3108072B6FEE700BF12B070BDDE
:1044E0004EF68850CEF20000016841F47001016080
:1044F0007047000080B542F22030C2F20000FEF7A3
:10450000D1FE2420C4F20000016841F68052C2F2BC
:10451000000211600021016080BD000042F268309D
:10452000C2F20000FEF7BEBE10B540F6FF3E0368C3
:10453000C4F2000E40F2004C7045C4F2010C25DCC0
:10454000B0F1804F2FD040F20042C4F200029042FE
:1045500029D040F60002C4F20002904223D041F676
:10456000FF72C4F20002904227DC70453ADCB0F1E1
:10457000804F5BD040F20042C4F20002904255D01E
:1045800040F60002C4F200024EE000BF40F60042D6
:10459000C4F20002904206D0604504D00022C4F26A
:1045A00001029042DBD14A6823F07003134341F6C5
:1045B000FF72C4F200029042D7DD43F6FF72C4F2EC
:1045C0000102904220DC42F20002C4F2000290425A
:1045D0002CD00022C4F20102904227D0604525D0A1
:1045E00028E000BF40F60042C4F2000290421DD015
:1045F00041F60002C4F20002904217D041F6004298
:10460000C4F2000210E000BF44F20002C4F2010252
:1046100090420BD044F60002C4F20102904205D051
:1046200044F20042C4F20102904203D1CA6823F46A
:104630004073134323F080024B69D1F800E08C688B
:104640001A430260C46240F48062C0F828E0624508
:1046500004BF096901630121416110BDB0B5044681
:10466000006804F108030ECB0569194325F4405591
:104670002A4302616269E3691143C268194349F23E
:104680000C639A431143C1604169A26921F44071EE
:1046900041F20043114340F48062C4F201039A42A4
:1046A000416103D1FEF774F802E000BFFEF75CF849
:1046B000E1694FF69C7563681922C0F6FF75B1F584
:1046C000004FA0FB02011FD15A00DB0FFBF729FEB0
:1046D00048F21F51C5F2EB11A0FB01235A0905F165
:1046E000805302FB0300322303EBC000A0FB010157
:1046F0004FF4F87000EA111000EB0210C1F3421100
:10470000084421688860B0BD9A009B0FFBF709FE42
:1047100048F21F51C5F2EB11A0FB01235A0902FB1D
:104720000500322303EB0010A0FB0101F02000EA9A
:10473000511000EB0210C1F3431108442168886056
:10474000B0BD0000FEE700002DE9F04140F260043A
:10475000C2F200041646626B0D46218F07461046D2
:1047600000229846FDF740FEE06BB4F840100022AE
:10477000FDF73AFE606B218F0022FDF735FE606881
:104780002189FA09FDF730FE606B218F0122FDF7C8
:104790002BFE606B218F0022FDF726FE60682189C9
:1047A000C7F38012FDF720FE606B218F0122FDF719
:1047B0001BFE606B218F0022FDF716FE60682189C9
:1047C000C7F34012FDF710FE606B218F0122FDF749
:1047D0000BFE606B218F0022FDF706FE60682189C9
:1047E000C7F30012FDF700FE606B218F0122FDF779
:1047F000FBFD606B218F0022FDF7F6FD60682189CB
:10480000C7F3C002FDF7F0FD606B218F0122FDF7B9
:10481000EBFD606B218F0022FDF7E6FD60682189CA
:10482000C7F38002FDF7E0FD606B218F0122FDF7E9
:10483000DBFD606B218F0022FDF7D6FD60682189CA
:10484000C7F34002FDF7D0FD606B218F0122FDF719
:10485000CBFD606B218F0022FDF7C6FD60682189CA
:1048600007F00102FDF7C0FD606B218F0122FDF70B
:10487000BBFD606B218F0022FDF7B6FD002D00F01F
:104880008A80013E606B218F16F8017F0022FDF7C0
:10489000ABFD60682189FA09FDF7A6FD606B218FE9
:1048A0000122FDF7A1FD606B218F0022FDF79CFD29
:1048B00060682189C7F38012FDF796FD606B218F38
:1048C0000122FDF791FD606B218F0022FDF78CFD29
:1048D00060682189C7F34012FDF786FD606B218F68
:1048E0000122FDF781FD606B218F0022FDF77CFD29
:1048F00060682189C7F30012FDF776FD606B218F98
:104900000122FDF771FD606B218F0022FDF76CFD28
:1049100060682189C7F3C002FDF766FD606B218FD7
:104920000122FDF761FD606B218F0022FDF75CFD28
:1049300060682189C7F38002FDF756FD606B218F07
:104940000122FDF751FD606B218F0022FDF74CFD28
:1049500060682189C7F34002FDF746FD606B218F37
:104960000122FDF741FD606B218F0022FDF73CFD28
:104970006068218907F00102FDF736FD606B218F29
:104980000122FDF731FD606B218F0022FDF72CFD28
:10499000013D7FF477AFB8F1010F0BD1606CB4F833
:1049A00048100122FDF720FD606CB4F84810002289
:1049B000FDF71AFDE06BB4F840100122BDE8F041AC
:1049C000FDF712BDB0B541F61C44C2F2000420460A
:1049D000442101F061FC47F61D50C0F600001E2185
:1049E000002232F043FC41F6C035C2F20005686097
:1049F00001202870204601F019FC0146686829B1A1
:104A000032F032FD00202870B0BD00BF32F01CFD36
:104A100000202870B0BD00002DE9F043B1F900E09E
:104A2000B2F90470BE4511DCB1F904C0B2F90060FE
:104A3000B4450BDBB1F90250B2F90640A54205DCE2
:104A4000B1F90680B2F90230984503DAFF2358B273
:104A5000BDE8F083B64509DBAB4207DCBC4505DCAD
:104A6000A04503DC002358B2BDE8F0835E1B36B2DC
:104A7000012EA8EB05090BDBA0F800E04580A0F8AB
:104A800004C0C380D4884D88B1F80680012300E0BB
:104A90000023A9EB04062E4436B2012E15DB0FFAD3
:104AA00088F627B2B74210DA0E888F8805EB09081E
:104AB00000EBC30520F833606C80AF80A5F806805A
:104AC0004D88D488B1F806800133B2F902602DB266
:104AD000AE42C8BF354626B20FFA88F4A642B8BF28
:104AE0003446661B36B2012E0E88ACEB0E0C10DB82
:104AF000B2F800E0AEEB06073FB2012F09DB00EB96
:104B0000C30720F833607D80A7F804E0FC800E889E
:104B100001339188ACEB0102324412B2012A09DB65
:104B200006EB0C0200EBC30720F8331001337D8045
:104B3000BA80FC8058B2BDE8F083000070B503462F
:104B4000B1F90000B2F90040B1F902C0B2F9025067
:104B5000B1F904E0B2F90460A042B1F90610B2F96B
:104B60000620C8BF0446AC451C80C8BF6546B64594
:104B70005D80B8BF764691429E80B8BF0A4600204D
:104B8000B4424FF00001D8BF01219542D8BF0120A7
:104B90000840DA8070BD00002DE9F04381B0B0F923
:104BA0000070B1F900309F423EDBB0F90250B1F91C
:104BB00002309D4238DBB0F90460B1F904309E4206
:104BC00032DCB0F90640B1F9060084422CDC7AB33D
:104BD0006B46884608461946ADF80070ADF802509D
:104BE000914600F099F8F8B1694640464A46ADF85A
:104BF0000060ADF8025000F08FF8A8B16946404659
:104C00004A46ADF80070ADF8024000F085F858B1A2
:104C1000694640464A46ADF80060ADF8024000F0F3
:104C20007BF801B0BDE8F083002001B0BDE8F0835F
:104C3000012001B0BDE8F083B0F90020B1F90430E3
:104C40009A4213DCB0F90420B1F900309A420DDB2E
:104C5000B0F90220B1F906309A4207DCB0F906003B
:104C6000B1F902108842A4BF0120704700207047AC
:104C70002DE9F04381B0B0F90460B1F900309E42F3
:104C800011DBB0F90670B1F902309F420BDBB0F9CD
:104C90000040B1F904309C4205DCB0F90250B1F992
:104CA0000600854204DD012001B0BDE8F08300BFAD
:104CB000FAB16B46884608461946ADF80040ADF893
:104CC0000250914600F028F898B9694640464A4695
:104CD000ADF80060ADF8025000F01EF848B9694622
:104CE00040464A46ADF80040ADF8027000F014F8B6
:104CF00020B1002001B0BDE8F08300BF6946404606
:104D00004A46ADF80060ADF8027000F005F880F09A
:104D1000010001B0BDE8F0832DE9F041B1F90030A8
:104D2000B0F90040A3420DDBB0F904E0734509DCA3
:104D3000B1F90210B0F902C0614503DBB0F90650C9
:104D4000A94203DD0020BDE8F08100BF012A54DB49
:104D5000AEEB0400013086B200EBD63006B2A5EB14
:104D60000C00013087B200EBD73007B24FEA66087B
:104D70007810B8EB670FB8BF70109042A8BF10460C
:104D8000021917B200EB0C02BB4216B2D8BFB142F7
:104D900016DD2A1ABB4212B22ADC914228DB0744F4
:104DA0003FB23F1B07EBD7777E1004EB6705084443
:104DB00002EB67015B1B401A06FB06F10EE000BF29
:104DC000384400B2001B00EBD070421004EB6007C7
:104DD0000CEB6000DB1B081A02FB02F113FB03F271
:104DE00010FB002200208A4298BF0120BDE8F0811C
:104DF000AEEB000424B2A34202DA0120BDE8F08148
:104E000091421BDAB142F8DC201A02B2AEEB020288
:104E100002EBD27200EB62005710181A0CEB620220
:104E2000891A10FB00F007FB07F211FB01010020BB
:104E3000914298BF0120BDE8F08100BF271A3EB221
:104E4000AEEB060606EBD676751007EB6607084450
:104E500002EB6601DB1B401A05FB05F1BEE7000013
:104E600070B5B1F90030B2F90040B1F902C0B2F941
:104E70000250B1F904E0B2F90460A342B1F906109E
:104E8000B2F90620B8BF1C46AC450480B8BF6546E1
:104E9000B6454580C8BF764686809142C8BF0A465F
:104EA000C28070BD2DE9F04F91B0044632F086F912
:104EB00041F6FC290021C2F20009049008914CB18E
:104EC000E1682046C9F8001032F0BEFAD9F80000B7
:104ED00004E000BF17F0EAFDC9F8000000692EF0F9
:104EE00027F8D9F80010486918B12EF021F8D9F840
:104EF0000010C8692EF01CF8D9F80000006A2EF0E6
:104F000017F8D9F800100869002800F0DD80B1F822
:104F10005001002856D000274FF001080DF1240A57
:104F2000012004E0B1F85001013787424AD200283D
:104F3000F8D0C81990F830010028F3D1002504E01A
:104F4000B1F8500101358542ECD2BD42F8D0481984
:104F500090F830010028F3D1303101EBC70001EBAC
:104F6000C501FFF769FED9F800100028E8D001F16B
:104F7000300000EBC70100EBC5025046FFF770FFA1
:104F8000504614F013F8D9F80010044601EBC7009E
:104F9000303014F00BF8D9F80010064601EBC500CC
:104FA000303014F003F83044D9F800108442C7D2EE
:104FB000099A0A9B01EBC70002634363481980F812
:104FC0003081BDE70868027CD20700F0AB80C06882
:104FD0004068002800F0A68001F5AC7001F0C6F929
:104FE000D9F80010002840F09D800868C068036868
:104FF00082689A4208BF43680846CDE9063217F036
:105000006FFDD9F800100590B1F850210020002A5A
:10501000CDE90F00CDE90D00CDE90B00CDE9090088
:1050200058D009AEA6F1080A4FF0000808E000BF0A
:10503000D9F8001008F10108B1F85001804549D2B3
:1050400001EB080090F830010028F1D101F5AC70B7
:1050500001F0ECF80028EBD004460CE0D9F8000091
:10506000214600F5AC7001F08BF9204627F08CF951
:10507000002D2C46DCD0D9F80000214600F5AC709C
:1050800001F0FCF8D9F80010054601EBC80000F16A
:10509000300230462146FFF7BFFC411CE8D0012812
:1050A000DCDB5FFA80FB5746D9F80000214600F5AB
:1050B000AC7001F011F957F8081FBBF1010B7A68C9
:1050C00001604260F0D1C9E70020A1F8500111B0A1
:1050D000BDE8F08F01F5AC7001F0A8F80DF11408EF
:1050E00098E86001B0B10446D9F800004146006874
:1050F0002A46C06B2346876BCDE900650294B8470A
:10510000D9F80000214600F5AC7001F0B7F804466C
:105110000028E9D1D9F8000000F5AC7001F054F88E
:10512000D9F80010B1F850A10020BAF1000FC9F869
:10513000040000F0B381BAF1010F1DDB01EB0A009E
:1051400090F82F21F2B1BAF1010F15D090F82E216D
:10515000F2B1BAF1030F0FD390F82D21002A00F01D
:10516000A781BAF1030F07D090F82C01AAF1040A25
:105170000028E0D10EE000BF4FF0000A0868426B43
:105180005AB90EE0AAF1010A0868426B2AB908E090
:10519000AAF1020A0868426B1AB19047D9F80010C8
:1051A0000868C068826922F0010282610868C068EC
:1051B000826922F002028261B1F8502191F8280040
:1051C000002A40F0040281F8282000F0638109AF32
:1051D0000025CDF814A013E0DDE905A5D9F80000FD
:1051E00000EBC500303013F0E1FED9E900121044A5
:1051F000C9F80400B1F850010135854280F0FE8005
:10520000481990F830010028F4D1554505D10868B7
:10521000C068826942F0010282610868B846C068CD
:10522000826922F0020282610868C268C66B9268D5
:105230003260007C01EBC502800702F1300B21D007
:10524000084617F04DFCD9F80010441E084617F028
:105250009DFC013807B223B240460021002200978E
:10526000474613F0DDFED9F80000C6F80480006858
:10527000D0E903018269890716D4816962F341018B
:1052800015E000BFBBF80200BBF800A0BBF804703B
:105290000790BBF906400846069517F077FC844254
:1052A0005D460BDAEB880EE042F00201BB468161FD
:1052B0003046C6F808B034F053F98FE7D9F800004B
:1052C00017F064FC431ED9F80010A7EB0A00096828
:1052D000079ACF680130FF68A21A00B20132B7FB0B
:1052E000F0F0896914B2A042B8BF044611B39B46DE
:1052F000AA46002027460990ADF828007D1ED9F85F
:105300000000ADF82A500068414682699047BDF818
:105310002610BDF92A00411A013109B28C4202DA85
:105320002FB2002FEADC39B2002455465B46002933
:10533000C8BF441CB5F902000FFA83FA04EB000B56
:10534000ABF10101514580B2474621DD4FF0000825
:105350001FFA88F19AB28A423FF43EAF2988ADF82D
:105360002410A988ADF82600D9F80000ADF828105F
:10537000ADF82A307760B7600068C0688168316036
:10538000816941F002018161304634F0E9F823E798
:1053900007940DE0304634F0E3F80799584601FAD7
:1053A0008BFBABF1010151453B464F46A146CFDC9B
:1053B0002A880FFA81F8ADF82420AA88ADF82600D3
:1053C000D9F80000ADF82820ADF82A107760B76052
:1053D0000068C245C0689AB281684C463160BCBF63
:1053E000ADF82A3098461FFA88F1B9461F468A421E
:1053F000D0D1816941F002018161CBE791F8282089
:10540000002802F0FB0281F8282047D00868027CBF
:10541000D2071FD0C0684068E0B14FF498743025BF
:1054200009E000BF0134B1F85001A4F5987282423E
:1054300005F108050ED2085D0028F3D101F5AC7026
:1054400000F07AFFD9F800104A1952684B594260AF
:105450000360E7E701F130004FF4807127F0FAFBB9
:10546000D9F80000202100F5987027F0F3FBD9F857
:1054700000000021A0F85011049831F099FE089026
:10548000D9F800000068436A43B10899D9F80420AC
:10549000984703E000F0FB0081F8280026F094FD17
:1054A00000F052F800F00CF811B0BDE8F08F00BF2A
:1054B000AAF1030A0868426B002A7FF46EAE70E618
:1054C00010B541F6EC54C2F200042068002818BF61
:1054D00026F05AFF20461C2127F0BCFBE06900287B
:1054E00018BF26F051FF04F11C001C2127F0B2FB6D
:1054F000A06B002818BF26F047FF04F138001C21DC
:1055000027F0A8FB606D002818BF26F03DFF04F1CE
:1055100054001C21BDE8104027F09CBB42F224013E
:10552000C2F20001096804E00A7E42F001020A7634
:105530004969002908BF70474A688242F4D00A6866
:105540008242F5D1F0E700007047000041F61040BC
:10555000C2F20000042100F09FBE000041F6284086
:10556000C2F20000202100F097BE00002DE9F04FAC
:1055700085B00E9E1D46002B834608BFB6F5807F82
:1055800068D0DDF83C800023019301A8ADF8081035
:10559000CDF80A30ADF80E20ADF81010ADF812209D
:1055A000294632464346071D00F1080900F10C0A5E
:1055B0002DF012FD38462946324643462DF00CFDAB
:1055C00048462946324643462DF006FD50462946B8
:1055D000324643462DF000FDBDF90410BDF90870B8
:1055E000BDF90C60BDF91040B9423846BDF906C09E
:1055F000BDF90A30B8BF0846A6422546B8BF3546B1
:10560000A842B8BF0546B942C8BF0F46A642C8BFA8
:105610003446A742C8BF3C46A11CBDF90E60BDF987
:1056200012409C451A46A5F10200B8BF6246A64248
:105630002546B8BF3546AA42B8BF15469C45C8BFE7
:105640006346A642C8BF3446AF1EA342C8BF1C462D
:10565000A21C03E00139013A00200027ABF800004A
:10566000ABF80270ABF80410ABF8062005B0BDE84B
:10567000F08F0000F0B581B016460C46074631F0B9
:105680009DFDA2B241F6DC64C2F20004054620464C
:105690003946334623F028F930B1E0690021A16290
:1056A00070B1204601B0F0BD20462C2127F0D2FA7F
:1056B0004FF00040A0620024204601B0F0BD00BFC2
:1056C000284631F075FD012898BF0120E061204691
:1056D00001B0F0BD10B541F63444C2F200042046DA
:1056E000142100F0D9FD204600F0DEFDB0B11421F8
:1056F000044627F0AFFA47F64550C0F6020047F6D9
:10570000356148F2F11247F60D53C0F60201C0F6BA
:105710000202C0F602030FC410BD00BFFEE7000086
:10572000B0B50C4605460846102127F093FA2868C4
:10573000017804290AD0022906D0012908D1A98AB2
:105740002180E98A618003E0E96800E00A21616064
:105750004268002A08BFB0BD2146BDE8B0401047EE
:105760002DE9F04F8DB00446804634F8140F20B96F
:10577000B8F81600002800F02783D8F82C90B9F16B
:10578000000F43D04FF4807600274D462846002175
:105790006E222AF0DBFC0744284600216D222AF005
:1057A000D5FC01B2C90D50FA81F000B20012464397
:1057B000284629F0E7FE05460028E7D1380440F0E6
:1057C0008981B0B2B0F5807F40F0848198F84000C4
:1057D00000F00F00032840F0928148462AF004F8B8
:1057E0000546484629F07EFFB4F90010024603271B
:1057F00048462B46009707F0F5F805460026484630
:1058000029F03EFFC10700F0918195E123F0ECFD06
:105810000068B8F81410B8F81820037E5018A8F8DB
:105820001800B8F81600B8F81A10D8F82470084410
:10583000002FA8F81A0000F0C782584207904FF0D6
:10584000000900204FF0000A4FF0000B0194039371
:1058500008900690CDF810804FF4807600243D46E5
:10586000CDF83090284600216E222AF06FFC0444C7
:10587000284600216D222AF069FC00B2704306120E
:10588000284629F07FFE05460028EBD1D8F81800FD
:1058900021040B9008BFB6F5807F0FD04FF4803104
:1058A000604291FBF6F201B20BA80CAB2DF094FB19
:1058B000BDF82C00BDF82E1001E000BF010C02B2B3
:1058C00080EAE230A0EBE2300AB281EAE231A1EBF9
:1058D000E23180B289B288424FF0000088BF0120D7
:1058E00080F001014BEA010B4AEA000A3846102118
:1058F0002AF04AFE002800F0CA803846CDF824A0DD
:1059000029F0BEFE804600F004000BEA900408F087
:1059100008000BEAD0063846CDF814B029F0E6FFAF
:105920008246384629F04AFE8346384629F0DAFE98
:105930008146384629F058FFBAF1000FD8BFBBF1B5
:10594000010F6FDBBDF92E10DDF80CE00022714570
:10595000A8BF0122079B224099424FF00001D8BF07
:10596000012131401143069D18BF0C25089918BF2D
:1059700039460891B9F1000FD8BF00285ADD099ABD
:1059800008F0020102EA510CBDF92C10069408EA55
:105990000203B9F1000F4FF000044FF0000202962D
:1059A000C8BF01247145A8BF0122079E1A40B14219
:1059B0004FF00006D8BF012606EA0C06324318BF96
:1059C0000325089A18BF3A46089204EA0302012AFE
:1059D00002D1714580F2048100284FF00002C8BF57
:1059E0000122BBF1000F4FF00000C8BF0120BAF147
:1059F000000F4FF0000302EA0C02C8BF0123029C13
:105A0000012A069A00EA040002EA03024FF00009A4
:105A100024D1079BDDF824A0DDE9048B994223DC27
:105A2000E4E000BF069DDDF80CE0B9F1000FD8BF3F
:105A30000028A4DCBBF1000F4FF000004FF0000184
:105A4000C8BF0120BAF1000FC8BF0121DDF81080E6
:105A500001EA040230404FF0000901E0DDF8108057
:105A6000DDF824A0DDF814B0BDF92E100023714537
:105A7000A8BF0123079EB1424FF00001D8BF01210A
:105A80001A42069508BF10EA010040F0A18038468E
:105A90004FF480712AF078FD002804BF8AF00100DD
:105AA0005FEAC07000F0AB8038464FF400712AF016
:105AB0006BFD002804BF8BF001005FEAC07000F0AE
:105AC0009E80384629F05EFD074600287FF4C4AE6C
:105AD00095E000BF30B24FF4803292FBF0F0794293
