:020000040800F2
:1000000038DE0120D1020008854D000809470008AC
:10001000814D0008351F00088552000800000000CF
:10002000000000000000000000000000014E000879
:10003000E920000800000000914D00082D4E000846
:10004000EB020008EB020008EB020008EB020008DC
:10005000EB020008EB020008EB020008EB020008CC
:10006000EB020008EB020008EB020008EB020008BC
:10007000EB020008EB020008EB020008EB020008AC
:10008000EB020008EB020008EB020008EB0200089C
:10009000EB020008EB020008EB020008EB0200088C
:1000A000EB020008EB020008EB020008EB0200087C
:1000B000EB020008EB020008194F0008EB020008F1
:1000C000EB020008EB020008EB020008EB0200085C
:1000D000EB020008EB020008EB020008EB0200084C
:1000E000EB020008EB020008EB020008EB0200083C
:1000F000EB020008EB020008EB020008EB0200082C
:10010000EB020008EB020008EB020008EB0200081B
:10011000EB020008EB020008EB020008414F000868
:10012000C5200008D1200008DD200008EB020008EF
:10013000EB020008EB020008EB020008EB020008EB
:10014000EB020008EB020008EB020008EB020008DB
:10015000EB020008EB020008EB020008EB020008CB
:10016000EB020008EB020008EB020008EB020008BB
:10017000EB020008EB020008EB02000800000000A0
:10018000EB020008EB02000800F002F800F091F822
:1001900014A696E8000CB244B344DA4501D100F04D
:1001A00088F8BAE80F000FA696E83000A5EB040522
:1001B00004EB0607AAEB0704A7F101074FEA1515A0
:1001C0004FEA3414A4F10104AC4201D300F071F8F9
:1001D00013F0010F18BFFB1A43F0010300F001F800
:1001E000DBE71847A4810500C48105000A444FF0ED
:1001F000000C10F8013B13F0070408BF10F8014B86
:100200001D1108BF10F8015B641E05D010F8016BCA
:10021000641E01F8016BF9D113F0080F1EBF10F82E
:10022000014BAD1C0C1B09D16D1E58BF01F801CB51
:10023000FAD505E014F8016B01F8016B6D1EF9D5D4
:100240009142D6D37047000070470000002300247D
:1002500000250026103A28BF78C1FBD8520728BFD6
:1002600030C148BF0B607047662908F00FA36429AE
:1002700000F01281752900F00F81782900F0488183
:10028000732900F05886002070471FB548F0E9FA3E
:1002900000F0C0FE04000020002147F0A5FB401C38
:1002A00060600020002147F089FBE0601FBD10B5B1
:1002B00010BD00F0DFFF1146FFF7E7FF3AF01AF933
:1002C00001F082FA03B4FFF7F2FF03BC07F048FF26
:1002D0000948804709480047FEE7FEE7FEE7FEE7DA
:1002E000FEE7FEE7FEE7FEE7FEE7FEE70448054916
:1002F000054A064B70470000054F000889010008B9
:10030000389E012038DE012038BE012038BE012091
:10031000704753EA020C00F069802DE9F04B4FF072
:100320000006002B1FBFB3FA83F503FA05F424FA85
:1003300005F65E4012BF1643B2FA82F502FA05F4E2
:10034000C5F120051EBF22FA05FC44EA0C04203545
:1003500056EA044C4FEA144418BF641C4FF00008DE
:100360004FF00009904271EB030C39D3002919BFFB
:10037000B1FA81F701FA07F6B0FA80F700FA07F64A
:10038000C7F120071EBF20FA07FC46EA0C062037FB
:10039000B6FBF4FCA7EB0507103F07F01F0BCBF1F2
:1003A00020062CFA06F60CFA0BFB44BFB3460026D7
:1003B000202FA4BF5E464FF0000B5BEA060C08BF7F
:1003C0004FF0010B19EB0B0948EB0608ABFB027C65
:1003D00006FB02CC0BFB03CCC01B71EB0C01C1E78D
:1003E0000B46024641464846BDE8F08B13B508432C
:1003F00018BF4FF0FF300146AFF30080BDE81C404E
:10040000704700000FB4044910B503AA029800F029
:1004100097FD10BC5DF814FBB01E00200FB41CB596
:10042000074B06AA7B4469460090059800F059FDE9
:100430000020694600F068FD1CBC5DF814FB00005C
:10044000E10A000070B50C460546012A05D028785F
:10045000800600D5EA69002302E0012305E05B1C69
:10046000934202D2E05C0028F9D1A869E618C01ACC
:10047000A861286A184428622846AFF3008004E087
:10048000D5E9012114F8010B9047B442F8D328466E
:10049000AFF3008070BD00002DE9F0410646002456
:1004A00010687529314616A510D0AFF300800028DA
:1004B00002DA404213A507E031688A0701D512A588
:1004C00002E0490704D511A5012401E0AFF3008043
:1004D00000210A2206F1240709E0B0FBF2FCB0FB80
:1004E000F2F302FB1C00303078541846491C0028F7
:1004F000F3D123462A463046BDE8F04100F085BAE4
:10050000000000002D0000002B0000002000000073
:1005100070B504460D4621461068AFF3008021886F
:10052000090502D50F4A7A4402E00E4A7A440E3297
:10053000002104F1240305E000F00F060009965D98
:100540005E54491C0028F7D120780023000704D509
:10055000702D02D009B1022311322046BDE870404F
:1005600000F053BA628404002DE9F05F8946044626
:100570004FF0000ADFF824B1FB44C0F820A0204669
:10058000E168884700287DD0252806D0D4E90121DC
:100590009047206A401C2062F1E700255F46204614
:1005A000E16888472028064607DB312E05D2B819B6
:1005B00010F8200C08B10543F1E7A80701D525F094
:1005C0000405C4F81CA00027C4F818A02A2E09D0DE
:1005D000304647F062F938B304EB8708303EC8F87C
:1005E000186019E059F8041B204604EB870291615A
:1005F000E1688847012F064618D1E069002820DA13
:1006000025F020051DE0D8F8180000EB800006EB6F
:1006100040003038C8F818002046E1688847064690
:1006200047F03BF90028EED1012F0AD02E2E08D139
:100630002046E16888477F1C0646022F45F02005CA
:10064000C4DBA069002803DA404245F00105A0613F
:10065000E80701D025F01005A6B1A6F14100192840
:1006600002D8203645F400654A46314620462560CA
:100670004D46FFF7F9FD60B1012807D0ED1D25F0CB
:10068000070000E007E000F1080978E705F1040938
:1006900075E730467AE7206ABDE8F09F38840400A9
:1006A00010B5044603E00EF0E1FF401C09D014F839
:1006B000010B05490028F6D1BDE810400A200EF0D4
:1006C000D5BF4FF0FF3010BDB01E002030B505463D
:1006D0000B462A4613F8014B12F8010B08B1A04251
:1006E000F8D01CB1002802D06D1CF1E7284630BDBF
:1006F00040EA010310B59B070FD1042A0DD310C89F
:1007000008C9121F9C42F8D020BA19BA884201D9F0
:10071000012010BD4FF0FF3010BD1AB1D30703D038
:10072000521C07E0002010BD10F8013B11F8014BEE
:100730001B1B07D110F8013B11F8014B1B1B01D10A
:10074000921EF1D1184610BD40EA0103024630B5B1
:100750009B0710D14FF0013400E008C208C91D1BEF
:100760009D4315EAC41FF8D013F0FF0102F8011BE6
:100770000DD01B0AF8E711F8013B002B02F8013BF2
:1007800005D011F8013B002B02F8013BF3D130BD3D
:1007900010B5431C02E010F8011B71B18107FAD1BA
:1007A0004FF0013202C88C1A8C4314EAC211F9D0FE
:1007B000C01A0A0603D0C01E10BDC01A10BD0A041C
:1007C00001D0801E10BD0902FCD0401E10BD032ABE
:1007D00040F2308010F0030C00F0158011F8013B5E
:1007E000BCF1020F624498BF11F801CB00F8013B45
:1007F00038BF11F8013BA2F1040298BF00F801CB09
:1008000038BF00F8013B11F0030300F02580083ADF
:10081000C0F0088051F8043B083A51F804CBA0E836
:100820000810F5E7121D5CBF51F8043B40F8043B8B
:10083000AFF30080D20724BF11F8013B11F801CBC0
:1008400048BF11F8012B24BF00F8013B00F801CB91
:1008500048BF00F8012B704710B5203AC0F00B805C
:10086000B1E81850A0E81850B1E81850A0E81850A6
:10087000203ABFF4F5AF5FEA027C24BFB1E818501C
:10088000A0E8185044BF18C918C0BDE810405FEA7E
:10089000827C24BF51F8043B40F8043B08BF7047FA
:1008A000D20728BF31F8023B48BF11F8012B28BFFF
:1008B00020F8023B48BF00F8012B704702F0FF030D
:1008C00043EA032242EA024200F00AB802F0FF03C0
:1008D00043EA032242EA024200F024B84FF0000249
:1008E0000429C0F0128010F0030C00F01B80CCF142
:1008F000040CBCF1020F18BF00F8012BA8BF20F8B0
:10090000022BA1EB0C0100F00DB85FEAC17C24BF03
:1009100000F8012B00F8012B48BF00F8012B7047AD
:100920004FF0000200B5134694469646203922BF88
:10093000A0E80C50A0E80C50B1F12001BFF4F7AFD3
:10094000090728BFA0E80C5048BF0CC05DF804EBB5
:10095000890028BF40F8042B08BF704748BF20F823
:10096000022B11F0804F18BF00F8012B70470000D8
:1009700030B44FF0013C50F8042B51F8043BCCFA52
:1009800052F4D51A20D1FCB950F8042B51F8043B8D
:10099000CCFA52F4D51A17D1B4B950F8042B51F847
:1009A000043BCCFA52F4D51A0ED16CB950F8042B92
:1009B00051F8043BCCFA52F4D51A05D1002CDAD008
:1009C00030BC4FF00000704729BAB1FA81F111F044
:1009D0001801D1F120008440F2D1CA40CB4012F07E
:1009E000FF0213F0FF0330BCD01A70477047704706
:1009F0007047704710B500F011FB006810BD10B5CE
:100A0000044600F00BFB046010BD2DE9F0470D46D5
:100A100099469246044600F124080168880604D5E8
:100A2000E06921F01001216000E00120A84201DD11
:100A3000471B00E00027A1697A1902EB0900081A98
:100A4000A0612078C00602D42046AFF300800026C3
:100A500008E0D4E901211AF806009047206A401CFA
:100A6000761C20624E45F4DB2078C0060AD520466D
:100A7000AFF3008006E0D4E9012130209047206ADE
:100A8000401C2062381EA7F10107F4DC07E0D4E91E
:100A9000012118F805009047206A401C2062281E9A
:100AA000A5F10105F3DC2046AFF3008020780006B5
:100AB00002D50220BDE8F0870120FBE72DE9FF4FBA
:100AC0000C461E464FF0FF378BB0D2E90001DDF82F
:100AD00060800A908A46C1F30A5505B93D46002157
:100AE00008464FF00000BAF1000F00F4400005DAAC
:100AF00000EB80004FF4400101EA50004FEA9059AA
:100B0000B9F1010F00DDB9460A9850EA4A000ED04B
:100B100044F61050A5F2FF3545432F14B8F1000FED
:100B20001ED07542291E1EDDC9F100021CE0B8F17D
:100B3000010F4FF0000001D0302103E0F24305E047
:100B40002154401CB042FBDB3046002200212154DE
:100B50000B99C1F80880C1E900200FB0BDE8F08F03
:100B6000BD1B6D1CDEE74A4600DA694206A800F0AC
:100B700007FB06AB93E8070003AB83E8070050468A
:100B80000A9945F014F98DE80700A0F500501F38C8
:100B900000900398002D0ADD42F21F014A460844E6
:100BA000002303A90390684645F0C0FB09E0A0F5C7
:100BB00000504A461F38002303A90390684645F0B9
:100BC000DFFB8DE807000004000C03D04FF0FF307E
:100BD000410800E01046B8F1000F03D00022009257
:100BE00015461EE0751E05D400F01CFA3032625521
:100BF0006D1EF9D5B3460122084302D000227F1CA6
:100C000004E02078302801D100227F1E002A0997B5
:100C100084D01DE0112D07DA00F004FA303262555D
:100C20006D1C50EA0102F5D1084302D00098C8B10A
:100C30000EE00021681E05E0235C625C63542254D0
:100C4000401E491C8142F7DBAB46A81B401E0990A1
:100C5000002004F80B000B98099AC0F80880C0E93E
:100C6000002B7AE711264FF0000857E72DE9F04FE7
:100C700088460446D21D22F0070191B0D1E9000157
:100C8000CDE90A0145F0C8FC02460B98C00F01D01F
:100C90002D2007E02068810701D52B2002E02021CC
:100CA00001EAC000032A099001D0072A05DB0346A8
:100CB0004146204600F004FA0BE12078800601D579
:100CC000E06900E00620B8F1650F814606D0B8F172
:100CD000660F18D0B8F1670F70D131E00020B9F17C
:100CE000110F009001DB112301E009F101030AAAB1
:100CF00001A90CA8FFF7E2FEDDE90C70002609F15E
:100D00000105834647E001204B4600904FF0004725
:100D10000AAA01A90CA8FFF7D1FEDDE90DB00C99D4
:100D20005D46002610B909F101000D18B9EB050068
:100D300003D4C0F1FF3609F10105A5EB09002BE052
:100D4000B9F1010F01DA4FF001090020B9F1110FDB
:100D50000090484601DD112300E003460AAA01A9DC
:100D60000CA8FFF7ABFEDDE90C704D46002683466C
:100D7000207800070AD4AB4500DA5D4601A8012DB2
:100D800004DD411911F8011C302907D04F4502DA62
:100D900017F1040F04DA012082460FE06D1EEEE722
:100DA000002F02DCED1B3E4403E0781CA84200DD6E
:100DB0007D1CB81B00F1010A4FF0004720780007A6
:100DC00003D4AA4501DB4FF0FF3A0021B7F1004FF1
:100DD0000DF143088DF8431024D002202B23002F5F
:100DE00001DA7F422D230A21021EA0F1010000DC5E
:100DF0005FB197FBF1FC97FBF1F201FB1C7C1746FE
:100E00000CF1300C08F801CDEEE7A8F101000370F9
:100E10002188090501D5452100E06521A0F10108DF
:100E200000F8011C09980FA9A1EB0807FF1D00B1EC
:100E30000120411901EBEA70A1693844081A401EEB
:100E4000A0612078C00602D42046AFF30080099844
:100E500028B1D4E901219047206A401C2062207803
:100E6000C00622D52046AFF300801EE0002E04DB32
:100E7000B34502DD01A8805D00E03020D4E9012106
:100E80009047206A401C2062761CAAF101005FEAAC
:100E9000000A0AD100F0BEF8C0680168405CD4E9DD
:100EA00001219047206A401C2062281EA5F10105FF
:100EB000DCDC07E0D4E9012118F8010B9047206A37
:100EC000401C2062381EA7F10107F3DC2046AFF377
:100ED0000080032011B041E601694A1C02610878D4
:100EE000704700B58FB0CDE901310021059105496A
:100EF0007944CDE9031011466846FFF735FB0FB082
:100F000000BD0000E5FFFFFF0A6802F8010B0A6060
:100F1000704710B5436913B1AFF3008001E0FFF7EC
:100F200091FA012010BD127800F124010A7000220C
:100F30004A700122EDE711684FF0FF32E9E7000047
:100F4000074B70B50D467B44FFF7CBFF04462846A0
:100F500000F088F910B14FF0FF3070BD204670BD31
:100F600023E700000FB40B0010B54FF000048AB067
:100F70000FA900910E99CC60234C7C44234A7A44FB
:100F8000CDE9064200D004236FF00042CDE90132E2
:100F90001F4A7A446B4608920246002047F0D8FC6C
:100FA0000AB010BC5DF814FBF0B507464FF0FF30F7
:100FB0001E4615460C463B4685B06A460091CDE973
:100FC000010131460020049004A8FFF7CBFF0499EB
:100FD0000346601825B109B1024600E022462A60A6
:100FE00000290ED0002B02DD0099814209D03B463A
:100FF0006A463146001B0094CDE9010404A8FFF7BE
:10100000B1FF05B0F0BD0000C3010000DD0100002C
:101010001901000000487047981A002000487047E6
:10102000781A002030B5B0F10A0271F100034FEADE
:10103000900E4EEA817EB0EB0E0061EB91014FEA1B
:10104000101E4EEA017E10EB0E0041EB11114FEA2B
:10105000102E4EEA016E10EB0E0041EB11214FEA0B
:10106000104E4EEA014E10EB0E0041EB11414018BC
:1010700041F100014FEAD00040EA41704FEAD1014E
:101080004FEA810444EA907410EB800544EB0104BC
:101090006D1944EB0404521BA3414FF0000348BFF9
:1010A0000A3200D530BD401C41F1000130BD10B501
:1010B000044600F005F90068005D00F0010010BD75
:1010C0002DE9F0411F46044603260168072A01F472
:1010D000006004DB08B116A505E016A503E008B121
:1010E00015A500E015A521F010002060A069C01E24
:1010F000A0610FB1401EA0612046AFF300804FB148
:10110000D4E9012138469047206A401C2062C01C67
:10111000206206E0206AFAE7D4E9012115F8010B04
:101120009047761EF8D22046AFF30080BDE8F081EC
:101130004E414E006E616E00494E4600696E66007B
:10114000426842B1016811F8013B23B1521EC0E967
:101150000012184670470121C160881E704742681E
:101160005AB1C368016843B983688B4205D0491EF0
:10117000521CC0E90012002070474FF0FF3070474A
:101180002DE9F047814616468AB0354878440DC8A7
:101190008DE80D0032487844801C03AC0DC884E80B
:1011A0000D0041F69B300844372190FBF1F290FB93
:1011B000F1F5A5F1800501FB12041B3C02D5644248
:1011C000012000E00020DFF898A080460027FA44C4
:1011D000AAF1BE0A0EE0E0070AD03246684607EBE5
:1011E000470101230AEB810145F0CAF88DE80700A9
:1011F00064107F1C002CEED1194F7F44AE3F19E0E4
:10120000E80715D007EB04100DF1180A90E80E005E
:101210008AE80E00C068F04201D198190890324661
:10122000012306A903A845F0ABF803AB83E8070048
:101230006D10641C002DE3D14FF001033246694666
:10124000B8F1000F03A802D045F070F801E045F0B6
:1012500097F8C9E90001C9F808200AB0BDE8F0878D
:1012600084790400007B00F08000704700487047DC
:10127000781A00207546FFF7F9FFAE46050069466B
:10128000534620F00700854618B020B5FFF72EF82A
:10129000BDE820404FF000064FF000074FF0000877
:1012A0004FF0000BAC46ACE8C009ACE8C009ACE8B4
:1012B000C009ACE8C00921F007018D467047000065
:1012C00010B5FFF7A7FE001D10BD00BF1D6704008D
:1012D0002DE9FF4F06468BB00878FF2806D0491C41
:1012E0002D2805D000244FF0000908E000200CE074
:1012F0000124F8E709EB8903491C00EB430908784E
:10130000FF28F7D114B1C9F10000814610780025FB
:101310002C46AA4629462D2801D02B2804D1521C40
:101320002D2813D0002082468B461078FF280FD03E
:101330004FF0000C0A21521CA5FB017804FB01812F
:1013400005FB0C11C5194BEB0104EEE70120EAE7A0
:10135000002108464FF00000BAF1000F02D000EB68
:1013600080004008C0F38157012F01DD4FF0FF37A7
:101370000E9955EA040009EB01080BD04FF0020961
:1013800018F5FA7F16DA4FEACA70002F706008DD90
:10139000012007E04FEACA70C6E900B00FB0BDE80F
:1013A000F08F00203060FFF739FEC0F80090182160
:1013B000084616E0B8F5FA7F18DD002F02DAF74884
:1013C000784401E0F6487844D0E90010C6E90010FE
:1013D00040EACA707060FFF721FEC0F80090142147
:1013E00008460FB0BDE8F04F47F04DBA002108465F
:1013F0004FF00000B8F10001099002DAC7F10002D5
:1014000000E03A4601DAC8F1000106A8FFF7B8FE8D
:1014100006AB93E8070003AB83E8070044F23E0005
:101420005BEA04010090584604D144F21E012C46A8
:101430005D460091210C0904014306D10099240462
:1014400044EA15442D041039009104F07F41014312
:1014500006D10099240244EA15642D02083900914E
:1014600004F07041014306D10099240144EA157447
:101470002D01091F009104F04041014306D100995C
:10148000A40044EA9574AD00891E009104F0004167
:10149000084304D100986D196441401E00904FF03C
:1014A00001033A466846B8F1000FCDE9014503A9AA
:1014B00002DD44F07AFF01E044F04DFFBAF1000F85
:1014C00004460D4601D084F00044002108464FF048
:1014D0000000099940F2FF77484010F00C0F07D147
:1014E00024F00040284303D0C4F30A50B84212D17C
:1014F000FFF794FDC0F80090C4F30A50B8420AD137
:10150000A8487844D0E90010C6E9001004F0004172
:101510000843706042E7C6E900543FE72DE9FF4FFA
:101520001F464FF0000A4FF0FF38454691B0D7E90B
:101530000146CDF83CA0FFF76DFDC0680168405C36
:101540001090B96912986D1C8847396A814688479E
:101550000028F6D1B9F1FF3F0AD0002E24F4D06460
:1015600011DDB9F12B0F08D0B9F12D0F0BD102E02D
:10157000404615B013E744F48064B96912986D1CB5
:101580008847761E8146600504A901D52D2000E01C
:101590002B20002E01F1010B0DF130088DF8100009
:1015A0003FDDB9F1690F08D0B9F1490F05D0B9F1A4
:1015B0006E0F02D0B9F14E0F1CD13B4601A8009529
:1015C00080E85002DDE912126FF0020047F0C4F922
:1015D000C11CCED10EE0B96912986D1C88478146B6
:1015E0001398761E44F4007405600F98401C002E7A
:1015F0000F9016DDB9F1300FEDD0B9F1780F02D0B0
:10160000B9F1580F0DD10F9801280AD13B46CDE909
:101610000054DDE91212001F029647F09BF9C11C2D
:10162000A7D1109989453ED144F0800406E0139972
:10163000681CAAF1010A44F400740860B9696D1CC1
:101640001298761E884730288146F0D02BE01099FA
:10165000894505D1200603D4761E44F0800418E0A5
:10166000484646F01AF908B3761E0DF12302934559
:10167000A9F1300044F4007406D20BF8010B2006E7
:1016800007D5AAF1010003E0200602D40AF1010007
:101690008246A00502D51399681C0860B9691298A2
:1016A0006D1C88478146002ED1DC53E0002E51DDB1
:1016B000B9F1650F02D0B9F1450F4BD1A00549D55D
:1016C000B9696D1C1298761E24F440748847002E68
:1016D00081460CDD2B2804D0B9F12D0F07D144F43D
:1016E0008074B96912986D1C8847761E8146E005A2
:1016F00001D52D2100E02B2108F8011BCDF8008039
:1017000021E0761E0DF13901884544F400740CD2B5
:10171000A9F1300010F0FF0088F8000002D1009914
:10172000884509D908F1010806E0E00501D51E4801
:1017300001E042F20F708246B96912986D1C884729
:10174000814613980560002E04DD484646F0A5F852
:101750000028D6D1F96912988847FF2053468BF8A4
:10176000000088F8000000200A900B9004AA0CA941
:101770000AA8FFF7ADFDA00502D46FF00100F8E65E
:1017800014F0240F12D0E0071CD13868DDE90A12EA
:10179000031D3B600068C0E9001213E0EC6F050018
:1017A000DE6F0500A26E0500F1D8FFFF0AA96846AA
:1017B00046F060F8E00705D13868009A011D3960ED
:1017C000006802602846D4E610B50446AFF30080F6
:1017D0002046BDE81040FEF775BDB2F120030AD5E2
:1017E000C2F1200301FA02F120FA03F341EA0301F6
:1017F00000FA02F0704700FA03F14FF00000704762
:101800002DE9FF4F1F464FF03C0987B04FF00042D3
:10181000DDE9141001F10108DDF858A002EA40509A
:101820000390002005908346054604460490B9695C
:10183000461E08988847AAF1010A0290BAF1000FE3
:101840003BDD02982E2815D0102100F003FA002865
:101850002EDB4FF0010B0599014317D0B9F1000FB2
:101860000BDB4A46C117FFF7B8FF05430C43A9F14C
:10187000040905E0012004900BE008B145F00105E2
:1018800001200590049820B9361D02E0049800B1AB
:10189000361FB969089808F101088847BBF1000FA5
:1018A000AAF1010A0290C9D00999C1F80080C5E7E0
:1018B0000298702808D0502806D0F96908988847FF
:1018C000BBF1000F14D04FE0002002900120BBF1CB
:1018D000000F049009D0B969089808F101088847F9
:1018E000AAF10109B9F1000F07DCF96908988847E6
:1018F0006FF001000BB0BDE8F08F2B2804D02D282D
:101900000CD14FF0FF300490B969089808F1010834
:101910008847A9F10109B9F1000FE6DD411CE4D0C7
:101920000A2100F097F90028DFDB029908F101088D
:1019300001EB810100EB41000290B96908988847EA
:101940000A2100F087F9099AA9F10109B9F1000FFC
:10195000C2F8008001DD0028E7DAF96908988847B5
:101960000499029800FB016655EA040004D004F0D3
:101970004041090002D006E0039898E0A40044EA40
:101980009574AD00B61E04F00041080002D16D1937
:101990006441761E159810F0240F03D04FF00B0908
:1019A0005C4803E04FF028096FF07D008246564501
:1019B00007DAAAEB06018944B9F1410F01DD4FF0C6
:1019C000410901200021A9F10102FFF706FF0246AB
:1019D00028400B462140084301D0012100E00021AE
:1019E000501E029143F1FF3128402140084301D0AD
:1019F000012000E000200299834651EA0B014FD0FC
:101A0000002108464FF00000039900F4400039B16E
:101A100000EB80004FF4400100EBD07001EA600061
:101A20008015012802DD4FF0FF3000E013D0401C8C
:101A300036D0029860B3BBF1000F0CD14A460120AA
:101A40000021FFF7CAFE28402140084301D00120B1
:101A500000E00020E0B101204A460021FFF7BDFE72
:101A6000034640190A4661412D1A8C4111D3B9F140
:101A7000400F09DD159810F0240F02D0AAF13406AA
:101A800003E0AAF1170600E0761C00254FF00044A1
:101A900006E05B1E42F1FF3220EA030521EA020460
:101AA000CAF10100B04206DA1B49039808430190CD
:101AB000002000900EE0039AC4F3D321E80A0A4301
:101AC000164940EA44500A433146CDE900026846CF
:101AD00045F0D9FE159810F0240F0BD01598C007CB
:101AE00015D13868DDE90012031D3B600068C0E9CC
:101AF00000120CE002A8694645F0BCFE1598C0072C
:101B000005D13868029A011D3960006802604046BC
:101B1000F0E6000002FCFFFF0000F07F0000F03F55
:101B20002DE9FF4F92461D4685B04FF00041DDE99B
:101B3000124BDDE914727F1E01EA4B50414940F01F
:101B4000FF4940EA0108002122F0200049280491C1
:101B500002D04E2828D04CE03BA0012607C88DE8D3
:101B60000700A9690698641C88477F1E014606D4B1
:101B70001DF8060018B121F0200181420BD0E9695F
:101B800006988847032E34D0082E32D06FF001001B
:101B900009B0BDE8F08F761C032E01D0082EE0D1ED
:101BA000601CCAF80000DCE7A9690698641C884735
:101BB0007F1E2AD420F02000412826D1A96906984A
:101BC000641C88477F1E20D420F020004E281CD1A2
:101BD000A9690698641C88477F1E48F4002849F4C8
:101BE0008009CAF8004001D4282806D0E96906987F
:101BF00088475FEACB7012D022E0A9690698641C7E
:101C000088477F1E01D4002803DAE96906988847CF
:101C1000BCE72928F1D1641CCAF80040E9E71BF0B1
:101C2000240F07D028680499031D2B600068C0E9C1
:101C3000001805E02868021D2A600068C0F80090BE
:101C40002046A5E70000F07F494E46494E495459C9
:101C5000000000003A2800D2303820F02002412A4B
:101C600001D3A2F13700884201D34FF0FF30704713
:101C700080B582B00022B2EB912F18BF72211023E1
:101C80008DF8071043EA112103288DF806108DF80E
:101C9000052009D840F26001C2F200010A180020B4
:101CA0000121002303F07CFB0DF105020620032136
:101CB000012303F075FB02B080BD000000000000AE
:101CC00010B582B0044646F20050C1F6CD508142B4
:101CD00088BF4FF47A71084646F0A2F99FED100BC9
:101CE00053EC102B46F028FA02460B4645F0D0FE86
:101CF00046F052F900BA032C019009D840F2600076
:101D0000C2F20000021900200121002303F048FB69
:101D100001AA04200421012303F042FB02B010BDFC
:101D200095D626E80B2E21400146806B036C026C91
:101D300013F0500F08D0D20648BF00F043BB806BB1
:101D4000C26C0846104700BF42F40071016401688C
:101D50008A6812F0405F01D000F0FEBA027E002ACD
:101D6000FAD1CA6A12F4700F02D08A685205F3D40D
:101D70004A6822F020024A60016C21F480710164FB
:101D8000016CC90448BF00F0E7BA016C41F00101E1
:101D9000016400F0E1BA0000806B40210164416CF5
:101DA00041F00401416400F00DBB0000806B00F0C5
:101DB00007BB0000C0B2012864D0022832D003283B
:101DC00040F0988043F2043843F2742640F27427BE
:101DD00043F28044C2F2000850A5C2F20006C2F2EB
:101DE0000007C2F2000402E00A2042F017FD0120C1
:101DF0004FF0FF3142F098FA0028F5D0404600F04D
:101E000037FD2846FEF74CFC012042F007FD304626
:101E100039464FF4806200F057FC204601F070F91B
:101E2000E2E700BF43F2BC2843F2043640F67427D1
:101E300043F28044C2F200083AA5C2F20006C2F2A0
:101E40000007C2F2000402E00A2042F0E7FC012091
:101E50004FF0FF3142F068FA0028F5D0404600F01C
:101E600007FD2846FEF71CFC012042F0D7FC304657
:101E700039464FF4806200F027FC204601F040F91B
:101E8000E2E700BF43F2742840F2742943F2BC2712
:101E900041F2742443F28045C2F20008C2F2000904
:101EA00022A6C2F20007C2F20004C2F2000502E05C
:101EB0000A2042F0B3FC01204FF0FF3142F034FA27
:101EC0000028F5D0404600F0D3FC48460CF0C0FF97
:101ED0003046FEF7E5FB4FF47A7042F09FFC38463F
:101EE00021464FF4806200F0EFFB284601F008F92C
:101EF000DEE700BF43F28044C2F2000403E000BF0B
:101F00000A2042F08BFC01204FF0FF3142F00CFA26
:101F10000028F5D0204601F0F3F8F1E741444333BF
:101F200000000000414443320000000041444331BE
:101F30000000000002A400BF2046FEF763FAFBE7A2
:101F4000425553204641554C54000000B0B541F273
:101F50000004C4F20204054620464021012201F09B
:101F600095F8EA092046402101F090F8204620210A
:101F7000002201F08BF8022008F0F8FC2046202116
:101F8000012201F083F8022008F0F0FCC5F3801272
:101F90002046402101F07AF820462021002201F05D
:101FA00075F8022008F0E2FC20462021012201F011
:101FB0006DF8022008F0DAFCC5F3401220464021FB
:101FC00001F064F820462021002201F05FF8022091
:101FD00008F0CCFC20462021012201F057F8022015
:101FE00008F0C4FCC5F300122046402101F04EF871
:101FF00020462021002201F049F8022008F0B6FC1A
:1020000020462021012201F041F8022008F0AEFC18
:10201000C5F3C0022046402101F038F820462021B7
:10202000002201F033F8022008F0A0FC2046202115
:10203000012201F02BF8022008F098FCC5F3800281
:102040002046402101F022F820462021002201F004
:102050001DF8022008F08AFC20462021012201F010
:1020600015F8022008F082FCC5F34002204640210A
:1020700001F00CF820462021002201F007F8022090
:1020800008F074FC20462021012200F0FFFF02200E
:1020900008F06CFC05F001022046402100F0F6FF3C
:1020A00020462021002200F0F1FF022008F05EFC13
:1020B00020462021012200F0E9FF0220BDE8B040C7
:1020C00008F054BC43F26030C2F2000000F00EBDD4
:1020D00043F22040C2F2000000F008BD43F2C030DD
:1020E000C2F2000000F002BD70470000EFF3108064
:1020F00072B600BFFEE70000B3F5804F03461DD166
:10210000B0B553F822C00020CCF6F0700CEA000EF7
:1021100091E83100D1F818C040EA0E0040EA0410FE
:10212000C96840EA052040EA0C0040EA0141BDE8E8
:10213000B040002043F82210704700BF6FF070419C
:10214000002043F8221070472DE9F04F83B00B6850
:10215000024650F8230001F1240B20F0010042F860
:102160002300D1E902C0D1E900E301908869D1E9F7
:10217000049A0290C86BD1E9077600909BE830087A
:10218000D1F8308052F82E008021CFF6F07108404F
:10219000BCF1080F08BF43F040030199194341EA1D
:1021A000090141EA0A01394331432143294341EA04
:1021B0000B01029B41EA08011943009B19430843A4
:1021C00040EA0C01002042F82E1003B0BDE8F08F69
:1021D000F0B500EB82025068D1E902E400F0404C17
:1021E000D1E90030D1E9045643EA0C03002743EA61
:1021F0000010CFF6F07740EA0E20896907EB05550D
:1022000040EA04402843FE36084340EA06610020C5
:102210005160F0BD70B581B00022009290F83C2072
:10222000012A03D1022001B070BD00BFD1F800E047
:102230000122BEF10A0F1FFA8EFC80F83C2009D360
:102240004FEA4C02036812FA8EF2A2F11E0403F167
:102250000C0204E003680EEB4E0403F110020725A4
:102260001668A54026EA050515608D68166805FA0A
:1022700004F4344314604968062907D801EB81014E
:102280004A1F194651F8345F0FE000BF0C2901EBDB
:10229000810105D8A1F12302194651F8305F04E00D
:1022A000A1F14102194651F82C5F1F24944025EA00
:1022B00004040C600CFA02F20C6842F2043CC4F212
:1022C000010C2243ACF54174A3420A603ED1BEF139
:1022D000120F07D1DCF8001041F48001CCF8001097
:1022E00034E000BF2EF0010110292FD1DCF80010DE
:1022F000BEF1100F41F40001CCF8001026D140F2DD
:10230000DC01C2F2000109684DF68362C4F21B329F
:10231000A1FB0212910C01EB81014900009100998F
:10232000A1B1009901390091009979B10099013961
:102330000091009951B1009901390091009929B19A
:1023400000990139009100990029EAD1002180F813
:102350003C10002001B070BD80B582B00021019119
:10236000016842F20000C4F20100814241F6D82027
:10237000C2F2000010D042F20022C4F201029142E7
:1023800008D042F20012C4F20102914216D1143078
:1023900003E000BF183000E01030006801A942F0EF
:1023A00001FB019850B14EF60450CEF200004FF000
:1023B00080510160BFF34F8FBFF36F8F02B080BDBC
:1023C0007047000070470000002804BF01207047DC
:1023D00010B5016C00293DD0016CC90645D4016CD3
:1023E00041F202129143023142F204320164C4F21A
:1023F0000102116821F440311160136890E8121055
:102400002343D0F810E013604A68012422F480725C
:102410004A604A68C0F6007442EA0E224A604A687E
:1024200022F040724A604A6842EA0C024A608A68B6
:1024300022F400628A60C2688B681A438A60826AEA
:102440008B68A24223F070638B608B6810D123F0FD
:10245000405216E0044600F065F820460021616411
:1024600084F83C10016CC906B9D5012153E000BFC6
:102470001A438A608A6822F040528A60C26A8B6876
:102480001A438A608A6822F002028A608A68037EA0
:1024900090F8204042EA43028A604A6884B142F4DC
:1024A00000624A604A684EF2000322F460424A60C9
:1024B000426ACFF6FF734C6803EB4232224301E0DD
:1024C00022F400624A60CA6A40F2000C22F47002F0
:1024D000CA62C3694269CFF6F07CCC6A0CEB035345
:1024E0002343CB628B6823F400738B6090F8303009
:1024F0008C6844EA43238B608B6823F480638B6091
:102500008B6843EA82228A6000214164026C0123C5
:1025100063F301020264002280F83C20BDE8104011
:102520000846704770B586B00446006842F2002144
:10253000C4F2010100268842CDE90466CDE90266B5
:10254000019675D042F20011C4F2010188423FD0D9
:1025500042F20001C4F20101884240F0B38043F628
:1025600030000096C4F20200416941F4807141617B
:10257000416901F48071009100990096016841F071
:1025800001010160006801A900F0010000900098BD
:10259000022001900320CDE902060020C4F20200CF
:1025A00000F09EFC43F2603546F21040C2F2000596
:1025B000C4F202004FF48061C5E9000605F1100085
:1025C0004FF400624FF40053C5E902660EC06BE0A1
:1025D00043F630000096C4F20200416941F40071F4
:1025E0004161416901F40071009100990096016810
:1025F00041F001010160006801A900F001000090B4
:102600000098042001900320CDE902060020C4F2C6
:10261000020000F065FC46F21040C4F2020043F2F2
:10262000C0353030C2F200054FF000712EE000BF1F
:1026300043F630000096C4F20200416941F4806123
:102640004161416901F4806100910099009601683F
:1026500041F001010160006801A900F00100009053
:102660000098082001900320CDE902060020C4F262
:10267000020000F035FC46F21040C4F2020043F2C2
:1026800020451830C2F200054FF080614FF480629F
:102690004FF400634FF4005C28606960AE60EE6048
:1026A0002A616B61C5F818C04FF44030EE61C5E98E
:1026B0000806284600F0FCFA002818BFFFF716FDB0
:1026C000A563AC6306B070BDB0B582B000230193C2
:1026D00090F83C30012B03D1022002B0B0BD00BF06
:1026E0008E460123016880F83C308B689446DB07F6
:1026F00029D18B684DF6836443F001038B6040F26F
:10270000DC03C2F200031B68C4F21B34A3FB0434D5
:10271000A30C03EB43030193019BA3B1019B013B7A
:102720000193019B7BB1019B013B0193019B53B141
:10273000019B013B0193019B2BB1019B013B019349
:10274000019B002BEAD18B68DB0503D58B6823F452
:1027500080738B608C68036CE4070BD143F010012D
:10276000016444300121026811430160002002B07D
:10277000B0BD00BF40F20174A34303F5807303644E
:102780004B685B0504D5036C012464F30D330364CB
:10279000046C0023E4044FF0000444BF446C24F0B4
:1027A0000604446480F83C30836B41F6295441F6BA
:1027B000AD52C0F60004C0F60002C3E90F4241F674
:1027C0009952C0F60002DA646FF022020A604A6889
:1027D00042F2043442F080624A608A68054642F45C
:1027E00080728A604C31184672466346C4F2010416
:1027F00000F010FB21682868C90607D0A4F54171D4
:10280000884227D0002002B0B0BD00BF42F20001D4
:10281000C4F20101884215D042F20021C4F2010144
:1028200088420CD042F20011C4F201018842E9D181
:102830002168C90606D0A4F582718842E2D12168D8
:10284000C906DFD450F8081F11F0405FDAD14FF00D
:10285000804188E74FF60450CFF6FF70205810F003
:10286000405FCFD1A4F53F704FF080417BE700007F
:1028700090F83C10012904BF02207047B0B5012137
:10288000026880F83C109168002421F001019160F9
:102890009168C9074FF0000123D1916821F480713C
:1028A0009160816B91F83520022A0BD105460846CC
:1028B00000F0D4F840B12A6C0146284642F04002AC
:1028C0002A6403E0002101E00021284602685368E1
:1028D00023F080635360026C41F201139A4301328A
:1028E000026480F83C40BDE8B040084670470000F4
:1028F0004379012B4FF0020320D010B50371036818
:1029000002F0100ED3F800C0D1E9001440F6FE72B8
:1029100002FA0EF221432CEA020201FA0EF11143EF
:102920001960C0211A6801FA0EF122EA010119604A
:102930000121002301714371BDE810401846704722
:10294000002804BF01207047017941B910B500216A
:102950004171044600F00CF82046BDE81040022109
:1029600001710021012201610271084670470000D7
:1029700080B586B047F200410068C4F20001002231
:1029800088420592CDE903220292019202D006B05C
:1029900080BD00BF43F630000092C4F2020003691C
:1029A00043F000530361036903F000530093009B5D
:1029B0000092036843F001030360006800F0010027
:1029C00000900098102001900320CDE9020201F54B
:1029D000C63001A900F084FA06B080BD81B04FF086
:1029E000000CCDF800C00068002900900098104449
:1029F00014BF143008300090009900200B6001B023
:102A0000704700004279012A4FF0020224D010B52D
:102A10000271026801F0100C4FF0010E14680EFAFA
:102A20000CF323431360136841B103F470113C238A
:102A300003FA0CF3994209D1022104E003F03C01AE
:102A40003C2903D10121536819435160012100221F
:102A500001714271BDE810401046704770B5866D37
:102A6000044600F019FB94F83510022928D10546D8
:102A70002068216C026822F016020260426922F08E
:102A80008002426109B9A16C19B1016821F0080105
:102A90000160016821F00101016000BF2068006849
:102AA000C00715D000F0F8FA401B0628F6D3202006
:102AB0006065032084F83500002184F8341070BD6F
:102AC000802060650120002184F8341070BD00BFB3
:102AD000E06D3F2101FA00F0B060012084F835007C
:102AE0000020002184F8341070BD0000F0B581B0E2
:102AF0000021009140F2DC01C2F200010B68D0E934
:102B0000166148F2B51537680822C1F64E358A407D
:102B10003A42A3FB05350CD003681C68640708D54E
:102B20001C6824F004041C60B260426D42F0010293
:102B3000426501228A403A4208D003685B691B065D
:102B400004D5B260426D42F00202426504228A401E
:102B50003A4208D003681B689B0704D5B260426DF7
:102B600042F00402426510228A403A4219D00168BC
:102B70000B681B0715D5B2600B680A685B0309D4A4
:102B8000D20509D40A6822F008020A60016C29B94A
:102B900007E000BF110341D4016C11B1044688471E
:102BA0002046C26D202101FA02F33B4243D0016866
:102BB0000F68FF063FD5B36090F835700B68052F9E
:102BC0001CD123F016030B604B6923F080034B618B
:102BD000036C0BB9836C1BB10B6823F008030B600B
:102BE0003F219140B160012180F83510016D002234
:102BF000002980F8342054D158E000BF0A685B03F4
:102C000010D4D20512D40A6822F010020A60012101
:102C100080F83510002180F8341007E0816C00291D
:102C2000BCD1BEE7110301D4416C00E0C16B11B10E
:102C3000044688472046416DC1B3416DC9072ED077
:102C4000052180F835100168AA0A0B6823F00103FA
:102C50000B60009B0133934200931AD80B68DB078B
:102C600017D0009B01339342009312D80B68DB0707
:102C70000FD0009B0133934200930AD80B68DB0707
:102C800007D0009B01339342009302D80B68DB0707
:102C9000DFD1012180F83510002180F83410C16C9B
:102CA00021B101B0BDE8F040084700BF01B0F0BD60
:102CB0002DE9F041044600F0EFF9ECB105460220A1
:102CC00084F835000020216884F83400086820F07A
:102CD0000100086021680868C00711D000F0DCF925
:102CE000401B0528F6D9032520230320636584F8BB
:102CF0003550BDE8F08100BF0120BDE8F08100BF84
:102D0000086848F23F02CFF21002D4E9013500EA28
:102D1000020C04F10C0898E8C10143EA0C032B43B0
:102D20001843D4E9072E304338431043626A40EA1F
:102D30000E00042A40EA08031CD1206BD4E90A2EB5
:102D400040EA0E00184308604869BEF1000F20F009
:102D5000030040EA020040F0040C11D0B8F5005F17
:102D600036D0B8F1000F45D1022A46D0012A3BD017
:102D700032B942E00B60486920F0070040EA020CDB
:102D800001F0F8004AF6AB221038CAF6AA22A0FBDE
:102D900002231A094DF2BC43C1F814C0C0F6040363
:102DA0009A5C40F2FF335F284FF03F0021EA0301B5
:102DB00000FA02F088BF0431C4E9161288600023CB
:102DC00001250020636584F83550BDE8F08100BF1F
:102DD000032AD5D8012540230120DFE802F0030EA5
:102DE000030500BF82E700BFAEF1C070B0FA80F00B
:102DF000400904E0032A04D3C2D1CEF300600028C6
:102E0000BED0012540230120636584F83550BDE81C
:102E1000F081000090F834C0BCF1010F04BF022023
:102E2000704770B54FF0010C80F834C0D0F858E00E
:102E300090F835C0BCF1010F38D14FF0020C80F88A
:102E400035C04FF0000CC0F854C0D0F800C0846802
:102E5000056CC06DDCF80060402C26F48026CCF8B0
:102E60000060CCF804300B4604BF13460A463F21ED
:102E700001FA00F0CCF80830CCF80C20CEF80800AD
:102E8000DCF8000040F01600CCF800002DB1DCF8B2
:102E9000000040F00800CCF80000DCF8000040F032
:102EA0000100CCF80000002070BD00BF002180F8B8
:102EB0003410022070BD0000B0B5044600F0ECF8FC
:102EC000054640F20400C2F200000078611C18BF01
:102ED000044400BF00F0E0F8401BA042FAD3B0BDAC
:102EE0002DE9F04F83B000F1200200F13E4741F69A
:102EF0000045009207F1FF77C4F2020508224FEA6D
:102F0000B726A84208BF072200254FF000084FF05F
:102F10000009072E38BF4FEAB72201920AE000BF2E
:102F200009F1010908F10208B9F1100F05F10405D2
:102F300000F0A2800F68012202FA09FE17EA0E0AC9
:102F4000EED0D1F804C003220CF003077E1E02FA73
:102F500008F4012E6FEA040B12D88468CE6804EAE4
:102F60000B0406FA08F634438460446824EA0E062B
:102F7000CCF3001404FA09F42643466004E000BFD1
:102F8000032F01D103271EE0C6688C6806EA0B06F2
:102F900004FA08F42643022FC66014D16FF003022E
:102FA000009E02EA590756F807C005F01C040F22DC
:102FB0000B69A2402CEA0202A3401A43F251D1F855
:102FC00004C00CF00307026807FA08F302EA0B02D8
:102FD0001A431CF4403F0260A2D0002243F644038F
:102FE0000292C4F202031A6843F6004442F480429B
:102FF0001A601A68C4F2010402F480420292029A32
:1030000029F003024FF6084C2244CFF6FF7C52F819
:103010000C3005F00C070F26BE40B343019E06FAA4
:1030200007F73B4342F80C30A2684B6842EA0A07B4
:1030300043F60C4CDE0258BF22EA0A07A760C4F22E
:10304000010CDCF800209E0242EA0A0758BF22EA7F
:103050000A07CCF8007062689E0342EA0A0758BF6C
:1030600022EA0A0767602268DB0342EA0A0758BFC0
:1030700022EA0A07276053E703B0BDE8F08F00009B
:103080000069084018BF012070470000002A08BFEF
:10309000090481617047000049F23C70C2F20100EE
:1030A00000687047002804BF01207047B0B504468F
:1030B0000068D4E901124CF6CC43036045F2555345
:1030C000036041608260FFF7E7FF2168CA689207EA
:1030D00010D0054603E000BFC86880070AD0FFF79C
:1030E000DBFF401B21683228F6D3C8688007F3D085
:1030F0000320B0BD4AF6AA2008600020B0BD000041
:1031000001684AF6AA2200200A60704740F20400D3
:1031100049F23C71C2F20000C2F2010100780A6873
:10312000104408607047000080B543F60040C4F2C8
:103130000200016841F400710160016841F480619E
:103140000160016841F480710160032000F0B0F873
:103150000F2000F005F800F04BF8002080BD0000C3
:1031600010B586B0014637200022002400F074F824
:10317000372000F05FF843F640000194C4F20200EB
:10318000016841F0200101600068694600F02000FC
:103190000190019801A800F04DF900F06BF94DF68F
:1031A00083614000C4F21B31A0FB01014FF0FF30EE
:1031B00000EB914143F2046041F20042C2F2000090
:1031C000C4F2000240F2E733C0E90021C0E9024343
:1031D000046100F053FD18B1012006B010BD00BF1E
:1031E00043F20460C2F2000000F06AFE06B010BDB7
:1031F00082B0002043F640010190C4F202014A6807
:1032000042F480424A604A6802F480420192019A84
:1032100000900868002240F08050086008680F2184
:1032200000F08050009000986FF0010002B000F0B4
:1032300013B80000002848BF704700F01F010122AA
:1032400002FA01F11C2202EAD0004EF20012CEF284
:10325000000281507047000010B54EF60C5CCEF2B3
:10326000000CDCF80030C3F3022E8EF00704042CAF
:1032700028BF0424BEF103034FF0FF3E0EFA04F40E
:1032800038BF0023A14399400EFA03F39A43114338
:1032900000F00F0200F160430901043A03F56443B2
:1032A0006244002848BF02F10C03197010BD0000F1
:1032B0004EF60C51CEF200010A684FF6FF031A4099
:1032C00060F30A2242F0806040F0FD7008607047B1
:1032D000002804BF012070472DE9F04143F608089B
:1032E000C4F202080446D8F8F8030D4600F00700BF
:1032F000884207D288F8F853D8F8F80300F007009E
:10330000A84277D12068810717D5410705D5D8F89D
:10331000001041F4E051C8F80010010705D5D8F8B5
:10332000001041F46041C8F80010D8F80010A268FD
:1033300021F0F0011143C8F80010C00740D1D8F8BF
:10334000F80300F00700A84207D988F8F853D8F826
:10335000F80300F00700A8424CD12068410707D5C8
:10336000D8F80010E26821F4E0511143C8F80010C9
:10337000000708D5D8F80000216920F4604040EA31
:10338000C100C8F8000000F09DF8D8F8001048F619
:103390005432C1F30311C0F60402515C40F2DC0266
:1033A00020FA01F140F20800C2F200000068C2F207
:1033B00000021160FFF7D4FE0020BDE8F08100BFDD
:1033C0006068811E022907D258F8081C89015CBF79
:1033D0000120BDE8F08111E0012807D158F8081C50
:1033E00089035CBF0120BDE8F08107E058F8081CA4
:1033F000890703D40120BDE8F08100BFD8F8001090
:1034000021F003010843C8F80000FFF745FE064617
:1034100041F28837D8F80000616800F00C00B0EB8A
:10342000810F8CD0FFF738FE801BB842F2D9032001
:10343000BDE8F0810F22026043F60802C4F20202E6
:10344000136803F003034360136803F0F003836021
:10345000136803F4E053C360D2F800C04FF4E053A4
:1034600003EADC030361D2F8F80300F00700086008
:103470007047000040F2DC0043F60801C2F2000091
:10348000C4F202010068096848F66432C1F382217F
:10349000C0F60402515CC8407047000040F2DC00F6
:1034A00043F60801C2F20000C4F202010068096894
:1034B00048F66432C1F34231C0F60402515CC840A0
:1034C0007047000010B543F60404C4F202046068BB
:1034D00000F00C0142F200400829C0F2F40007D0CD
:1034E000042918BF10BD41F20020C0F27A0010BDBF
:1034F000216801F03F02216823684902C3F3881163
:1035000006D4A1FB00010023FCF703FF07E000BF86
:1035100041F20020C0F27A004843B0FBF2F021688B
:103520000222C1F3014102EB4101B0FBF1F010BDF9
:10353000002804BF012070472DE9F04182B0044605
:10354000007843F60006C007C4F202060CD0B0684B
:1035500000F00C00042840F081803068800303D51F
:103560006068002800F06881207880071BD5B0686B
:1035700010F00C0F09D0B06800F00C00082840F0E3
:1035800087807068400200F183803068800703D52F
:10359000E068012840F050813068216920F0F8008F
:1035A00040EAC10030602078000713D4207840073B
:1035B0002AD4A569002D00F03A81B06800F00C0013
:1035C000082840F0A580012D40F00E81012002B0B6
:1035D000BDE8F0816069002800F082800020C4F21C
:1035E00047200121C0F8801EFFF756FD054600BFA9
:1035F000706F8007DAD4FFF74FFD401B0228F7D920
:10360000032002B0BDE8F081306C5FEAC0080AD444
:1036100000200190306C40F080503064306C00F03D
:1036200080500190019847F20007C4F20007386803
:10363000C00547D4386840F480703860FFF72CFD2F
:10364000054600BF3868C0053CD4FFF725FD401B88
:103650000228F7D9032002B0BDE8F081B06800F07D
:103660000C00082803D1706840023FF576AF61680E
:103670003068B1F5803F07D0B1F5A02F40F09A80B7
:1036800040F480203060306840F4803030609AE050
:10369000E068002840F20000C4F247205CD001211D
:1036A0000160FFF7F9FC0546306880073FF574AF0D
:1036B000FFF7F2FC401B0228F6D9032002B0BDE858
:1036C000F08100BFA168306F012905D0052955D1CF
:1036D00040F004003067306F40F00100306756E082
:1036E0000020C4F247200021C0F8801EFFF7D4FC60
:1036F000054600BF706F80077FF558AFFFF7CCFC21
:10370000401B0228F6D9032002B0BDE8F08100BFBB
:103710000027C4F2472700203866FFF7BDFC022DC2
:1037200005460DD13068800140F18A80FFF7B4FC76
:10373000401B02284FF00300F4D902B0BDE8F0812D
:103740003068800173D5FFF7A7FC401B02284FF0BB
:103750000300F5D9F1E700BF00210160FFF79CFCF1
:10376000054600BF306880077FF51DAFFFF794FC6A
:10377000401B02284FF00300F4D9DEE720F00100DF
:103780003067306F002920F0040030677AD0FFF7EF
:1037900083FC054641F28837306F800700F1848052
:1037A000FFF77AFC401BB842F6D9032002B0BDE80F
:1037B000F08100BF20F4803030603068002920F4B0
:1037C000802030607AD0FFF767FC054630688003C0
:1037D0003FF5CAAEFFF760FC401B6428F6D9032012
:1037E00002B0BDE8F08100BF7068E16900F48002BA
:1037F0008A4221D1216A00F03F028A421CD147F659
:10380000C071626A0140B1EB821F15D1A16A4FF607
:10381000FF73C903994300F44032A1F580318A4215
:103820000AD1E16A00F07060B0EB016F04D10020B2
:1038300002B0BDE8F08100BF012002B0BDE8F08118
:1038400004F11C052FCD084340EA8210D9034FF63E
:10385000FF729143A1F5803140EA05600843706032
:1038600001203866FFF718FC044600BF306880016D
:10387000DDD4FFF711FC001B02284FF00300F5D93F
:103880005BE700BFFFF708FC054641F2883700BF41
:10389000306F800708D5FFF7FFFB401BB8424FF0A1
:1038A0000300F5D949E700BFB8F1000F3FF581AE3D
:1038B000306C20F0805030647BE600BFFFF7ECFBFB
:1038C000054600BF306880037FF54EAEFFF7E4FB8E
:1038D000401B64284FF00300F4D92EE770B528B1DF
:1038E000416A29B100210161142106E0012070BD67
:1038F0004168B1F5827F02D01C210022425000268F
:10390000866290F8511029B980F85060054600F0A1
:103910003DF82846022180F8511090E82E0002F46C
:1039200082720C6803F4044324F040040C601A44CF
:1039300005F4006305691A4405F0020345691A4459
:1039400005F001038569C4691A4405F400731A443B
:1039500004F03803046A1A4404F08003846A1A43AA
:1039600004F400531A430A60436A042202EA15422F
:1039700003F010031A444A60CA6922F40062CA6163
:103980000121466580F85110304670BD2DE9F043A5
:1039900087B043F600050068C4F200050026A8427F
:1039A0000696CDE904660396029603D007B0BDE8FB
:1039B000F08300BF43F630000196C4F202000169B3
:1039C00002AC41F48041016101694FF0020801F449
:1039D000804101910199019601684FF0030941F07E
:1039E000040101600168052701F0040101910199BA
:1039F0000196016841F0020101600068214600F073
:103A00000200019001980C20029005F5E830CDE904
:103A10000386CDF814900697FFF762FA4FF48060A2
:103A2000CDE9020805F5E6302146CDE9046906979F
:103A3000FFF756FA07B0BDE8F0830000002804BF86
:103A40000120704770B5044690F8490015460E46AF
:103A500028B9002084F84800204600F01DF82068AE
:103A600004F10801FEF770FB2068A2683146FEF7FA
:103A7000AFFBD4E90102236B2946FEF73DFB20682A
:103A8000A16850F8212042F0010240F821200120D5
:103A900084F84900002070BD0068B0F1204F18BFC5
:103AA0007047F0B585B0002143F630000091C4F2B4
:103AB0000200826840F6004542F00102826082689E
:103AC000C4F2020502F001020092009A009102681D
:103AD0006C4642F00802026002680C2602F00802FE
:103AE0000092009A0091026842F01002026002689F
:103AF00002F010020092009A0091026842F008025F
:103B00000260026802F008020092009A00910268C6
:103B100042F008020260026802F008020092009A75
:103B20000091026842F040020260026802F0400226
:103B30000092009A0091016841F020010160006844
:103B4000012100F02000009000984CF203700090DA
:103B500002200190CDE90210284621460496FFF785
:103B6000BFF94FF68070009005F580602146FFF7A1
:103B7000B7F920200090284621460496FFF7B0F9B7
:103B800010200090284621460496FFF7A9F94FF42B
:103B9000805705F54060214600970496FFF7A0F98D
:103BA00005F50060214600970496FFF799F905B0E6
:103BB000BDE8F0407047000070470000704700000B
:103BC00090F83C20012A4FF0020254D010B580F842
:103BD0003D200268D2F804E0D2F808C00C682EF04C
:103BE0007003234341F2FF74C4F20004A242536005
:103BF0000EDC40F2FF73C4F200039A4216DCB2F10D
:103C0000804F2BD040F20043C4F2000324E000BFF9
:103C100040F2FF33C4F201039A4213DC41F6000381
:103C2000C4F200039A4219D0002313E040F60003C7
:103C3000C4F200039A4211D040F60043C4F20003DC
:103C40000AE000BF44F20003C4F201039A4205D027
:103C500040F20043C4F201039A4204D149682CF0B7
:103C60008003194391600121002280F83D1080F803
:103C70003C20BDE81040104670470000002804BFFB
:103C80000120704710B5044690F83D0028B9002087
:103C900084F83C00204600F01FF8022084F83D0024
:103CA0002068211D01F052F9012084F8460084F8B3
:103CB0003E0084F83F0084F8400084F8410084F816
:103CC000420084F8430084F8440084F8450084F8F6
:103CD0003D00002010BD000080B586B0006840F2B5
:103CE000FF71C4F2000188424FF000010591CDE957
:103CF0000311CDE9011123DD40F60001C4F20001FA
:103D0000884233D040F20041C4F20101884247D0DA
:103D100044F20041C4F2010188427DD100200090AC
:103D200043F64000C4F20200416841F400314160B2
:103D3000406800F400300090009806B080BD00BFDD
:103D4000B0F1804F3ED040F20041C4F20001884201
:103D500062D10020009043F64000C4F202000168E6
:103D600041F002010160006825E000BF00200090E2
:103D700043F64000C4F202000168002241F0040151
:103D800001600068052100F00400009000981E20EA
:103D9000FFF762FA1E2006B0BDE88040FFF74ABA7E
:103DA0000020009043F64000C4F20200416841F058
:103DB00002014160406800F002000090009806B0E7
:103DC00080BD00BF002043F640010090C4F2020114
:103DD0000A6842F001020A600A6802F001020092D9
:103DE000009A009051F8102C42F0010241F8102C7A
:103DF00051F8101C01F0010100910099202101915E
:103E00000221CDE902100490012005900020C4F2A7
:103E1000020001A9FFF764F806B080BD90F83D10DC
:103E200001291CBF01207047022180F83D10006865
:103E300041F2FF71C4F2000188420DDC40F2FF71D3
:103E4000C4F20001884215DCB0F1804F2AD040F264
:103E50000041C4F2000123E040F2FF31C4F201014D
:103E6000884213DC41F60001C4F20001884219D0F7
:103E7000002113E040F60001C4F20001884211D095
:103E800040F60041C4F200010AE000BF44F2000124
:103E9000C4F20101884205D040F20041C4F20101A0
:103EA000884206D1816801F00701062904BF00207D
:103EB0007047016841F00101016000207047000077
:103EC00090F83D1001291CBF01207047022180F8A5
:103ED0003D10006841F2FF72C168C4F200029042D6
:103EE00041F00101C1600DDC40F2FF71C4F200013C
:103EF000884215DCB0F1804F2AD040F20041C4F274
:103F0000000123E040F2FF31C4F20101884213DCDA
:103F100041F60001C4F20001884219D0002113E0EB
:103F200040F60001C4F20001884211D040F6004181
:103F3000C4F200010AE000BF44F20001C4F2010132
:103F4000884205D040F20041C4F20101884206D106
:103F5000816801F00701062904BF0020704701684D
:103F600041F00101016000207047000090F83C2002
:103F7000012A4FF002026CD080B580F83D20D0F8C5
:103F800000C04FF67772DCF8083023EA0202CCF862
:103F900008200B684F2B29DC1F2B45DD202B46D03A
:103FA000302B44D0402B40F0AF80D1F804E0C968FA
:103FB000DCF82030DCF8202022F00102CCF82020B0
:103FC000DCF8182022F0F00242EA011123F00A0284
:103FD00042EA0E02CCF81810CCF82020DCF80810C9
:103FE00041F0470121F0300128E000BF6F2B33DDA5
:103FF000B3F5005F74D0B3F5805F21D0702B40F033
:104000008380D1E901E3C968DCF8082043EA0E03A4
:1040100022F47F4243EA01211143CCF80810DCF876
:10402000081041F0770109E00BB1102B6CD1DCF8DE
:10403000081021F07001194341F00701CCF8081075
:104040000022012180F83D10002180F83C10BDE8DD
:1040500080401046704700BF502B21D0602B53D1B9
:10406000D1F804E0C968DCF8203023F01003CCF864
:104070002030DCF81830DCF8202023F4704322F0E4
:10408000A00243EA013142EA0E12CCF81810CCF833
:104090002020DCF8081041F0670121F01001CDE785
:1040A000D1F804E0C968DCF82030DCF8202022F0E8
:1040B0000102CCF82020DCF8182022F0F00242EABD
:1040C000011123F00A0242EA0E02CCF81810CCF8D3
:1040D0002020DCF8081041F0570121F02001ADE765
:1040E000D1E901E3C968DCF8082043EA0E0322F4B1
:1040F0007F4243EA01211143CCF80810DCF8081094
:1041000041F480419AE700BF01229AE7704700001E
:1041100010B5016804460869800744BFC8685FEAB3
:10412000807039D40869400744BFC8685FEA4070AE
:104130003ED40869000744BFC8685FEA007045D4F0
:104140000869C00644BFC8685FEAC0604AD408690D
:10415000C0071CBFC8685FEAC07051D1086900067B
:1041600044BFC8685FEA006052D40869400644BF93
:10417000C8685FEA406053D40869800646BFC868D3
:104180005FEA806010BD6FF0200220460A61BDE842
:104190001040FFF713BD00BF6FF00200086101205F
:1041A00020778869800743D02046FFF7AFFF45E0BE
:1041B0006FF00400086102202077886910F4407FC6
:1041C00040D02046FFF7A2FF42E000BF6FF008009A
:1041D000086104202077C86980073DD02046FFF79A
:1041E00095FF3FE06FF01000086108202077C86954
:1041F00010F4407F3AD02046FFF788FF3CE000BF34
:104200006FF001000861204600F006FA2168A5E77A
:104210006FF0800008612046FFF7CEFC2168A4E71C
:104220006FF040000861204600F000FA2168A3E723
:10423000204600F025F8204600F064F921680020AF
:1042400020776FE7204600F01BF8204600F05AF96F
:104250002168002020776CE7204600F011F8204606
:1042600000F050F921680020207769E7204600F02F
:1042700007F8204600F046F921680020207766E71D
:104280007047000090F83C30012B04BF02207047BB
:104290004FEAB202032A00F2FF802DE9F043DFE883
:1042A00002F003B13F7F00BF036840F200461A6A84
:1042B00043F4806522F001021A621C6A1A46D3F8A0
:1042C00004C052F818EF8F6824F00204C4F201060B
:1042D000B54244EA070405D1CF6824F00C0427F066
:1042E00004073C430F68B54206D1D1E905582CF4C8
:1042F00040762E4346EA080C2EF073063743C3F887
:1043000004C09F614F6809695F631C629F6947F041
:1043100008079F619F6927F004079F61B1E000BF14
:10432000036840F200481A6A43F4806522F4807200
:104330001A621C6A1A46D3F804C052F81CEF8F6840
:1043400024F40074C4F20108454544EA072408D166
:10435000CF6840F2FF463F0224F4406427EA060695
:104360003443D1F80090454506D1D1E905562CF4E7
:1043700040572E4347EA061C2EF0730747EA090709
:10438000C3F804C0DF614F680969DF631C62DF693D
:1043900047F00807DF61DF6927F00407DF6170E09D
:1043A000036840F200451A6A43F4806722F48052A1
:1043B0001A621A46D3F820C05C6852F81C8FD1F8F4
:1043C00000E08E68C4F20105AF4204D14D6924F4C7
:1043D000804444EA85142CF4005747EA063728F451
:1043E000E64646EA0E265C60DE614E6809691E6498
:1043F0001F62DF6947F40067DF61DF6927F48067C8
:10440000DF613DE0036840F200481A6A43F48065CA
:1044100022F010021A621C6A1A46D3F804C052F83D
:1044200018EF8F6824F02004C4F20108454544EADF
:10443000071407D1CF686FF0400624F0C00406EAE5
:1044400007163443D1F80090454506D1D1E9055609
:104450002CF440672E4347EA860C2EF4E64747EAE1
:104460000927C3F804C09F614F6809699F631C62F4
:104470009F6947F400679F619F6927F480679F6188
:1044800009021368194311600021BDE8F0430022BE
:1044900080F83C20084670470121002280F83C202B
:1044A00008467047002804BF0120704710B5044635
:1044B00090F83D0028B9002084F83C00204600F028
:1044C0001FF8022084F83D002068211D00F03EFD09
:1044D000012084F8460084F83E0084F83F0084F808
:1044E000400084F8410084F8420084F8430084F8D6
:1044F000440084F8450084F83D00002010BD000011
:104500007047000070470000C1B1042908D0082995
:1045100014BF41224022825C012A05D016E000BF70
:104520003F22825C012A11D10222082910D00429DD
:1045300014BF80F8412080F83F200BE090F83E2027
:10454000012A03D1022280F83E2003E001207047B7
:1045500080F84020006801F01F010122036A02FA7E
:1045600001F123EA01020262026A114341F2FF7281
:10457000C4F20002904201620CDC40F2FF71C4F20E
:104580000001884214DCB0F1804F37D040F2004186
:1045900016E000BF40F2FF31C4F20101884215DC91
:1045A00041F60001C4F20001884227D0002115E045
:1045B00040F60001C4F2000188421FD040F60041DD
:1045C000C4F20001884219D01FE000BF44F200018C
:1045D000C4F20101884211D040F20041C4F201014D
:1045E000884212D1416C40F2004340F48062C4F230
:1045F000010341F400419A42416406D1816801F00F
:104600000701062904BF00207047016841F001013D
:104610000160002070470000006841F20041C4F2D0
:104620000001884218BF7047FEF770BD7047000058
:10463000002804BF0120704710B5044690F83D00E3
:1046400028B9002084F83C00204600F021F82420FE
:1046500084F83D002068C16821F40051C160204603
:1046600000F09CFD2068016921F4904101614169DD
:1046700021F02A014161C16841F40051C16000206C
:104680002021206484F83D1084F83E1010BD000005
:1046900080B586B041F200010068C4F20101002239
:1046A00088420592CDE903220292019202D006B01F
:1046B00080BD00BF43F630000092C4F2020043699F
:1046C00043F010034361436903F010030093009B20
:1046D0000092036843F001030360006800F00100EA
:1046E000009000984FF4C06001900220CDE90202D2
:1046F000032004900720059001F5704001A9FEF702
:10470000EFFB06B080BD000002A400BF2046FBF70F
:1047100079FEFBE7484152445741524520464155F6
:104720004C540000B0B584B043F27420C2F20000D3
:1047300042F200014FF080534FF000650024C4F2B4
:104740000101C0E90A53012503944FF48032047635
:1047500080F82040C56180F8304080E81600C0E94C
:1047600003444561FDF730FE002818BFFDF7BEFC8D
:1047700043F27420C2F200006946CDE9005502946C
:10478000FDF748FD002818BFFDF7B0FC04B0B0BD30
:10479000B0B584B043F2BC20C2F2000042F2001176
:1047A0004FF080534FF060650024C4F20101C0E96E
:1047B0000A53012503944FF48032047680F8204098
:1047C000C56180F8304080E81600C0E903444561C7
:1047D000FDF7FAFD002818BFFDF788FC0220CDE99F
:1047E000000543F2BC20C2F2000069460294FDF7C6
:1047F00011FD002818BFFDF779FC04B0B0BD000022
:10480000B0B584B043F20430C2F2000042F200219D
:104810004FF080534FF000650024C4F20101C0E95D
:104820000A53012503944FF48032047680F8204027
:10483000C56180F8304080E81600C0E90344456156
:10484000FDF7C2FD002818BFFDF750FC0320CDE99D
:10485000000543F20430C2F2000069460294FDF7FD
:10486000D9FC002818BFFDF741FC04B0B0BD000022
:1048700080B582B00020CDE9000043F24C3047F211
:104880000041C2F20000C4F200010160FEF758F8D6
:10489000002818BFFDF72AFC43F24C30C2F200009A
:1048A00069460022FEF724F8002818BFFDF71EFC19
:1048B00002B080BD80B582B00020019043F6300088
:1048C000C4F202000168002241F480010160006826
:1048D000052100F48000019001983820FEF7BCFC0F
:1048E0003820FEF7A7FC392005210022FEF7B4FC92
:1048F0003920FEF79FFC3A2005210022FEF7ACFC90
:104900003A2002B0BDE88040FEF794BC10B582B0FA
:1049100048F6F442C0F604020120012136F0B6F94F
:1049200041F6D824C2F20004A06044F625604DF29E
:10493000C442C0F60000C0F60402002136F002FABC
:10494000E0604EF64D0004344FF0030CC0F6030057
:1049500004A14FF400720023CDE900C440F0ACFF85
:1049600002B010BD73746172745F7461736B000088
:1049700070B586B0002543F630000595CDE90355A6
:10498000CDE901550095C4F20200016841F200042E
:1049900041F0100101600168C4F2020401F010014D
:1049A0000091009900950168002241F0200101600A
:1049B00001686C2601F020010091009900950168C2
:1049C00041F080010160016801F0800100910099CF
:1049D0000095016841F004010160016801F00401E3
:1049E000009100990095016841F0010101600168A2
:1049F00001F00101009100990095016841F0020168
:104A0000016000686C2100F00200009000982046D0
:104A1000FEF73CFB0120CDE9020501A920460196E5
:104A20000495FEF75DFA06B070BD000080B543F254
:104A3000804043F20001C2F20000C4F200010622ED
:104A400040F6FF7380E80E00FEF72CFB002808BF3D
:104A500080BDBDE88040FDF749BB000080B543F252
:104A60008C4043F60001C2F20000C4F200014FF492
:104A7000827200234FF4007C80E80E000A21C0E916
:104A80000333C0E9053CC361C0E90833C0E90A311A
:104A9000FEF724FF002808BF80BDBDE88040FDF779
:104AA00025BB000070B58EB044F2004543F2E440EF
:104AB000C4F201050021C2F2000001225323CDE916
:104AC0000611CDE90411C0E90052C0E902130161E9
:104AD0008161FFF7D3F8002818BFFDF707FB43F209
:104AE000E440C2F20000FFF7DDFC002818BFFDF72C
:104AF000FDFA43F2E4446020C2F200040190002673
:104B000001A920460022CDE902660596FFF7BAFB0F
:104B1000002818BFFDF7EAFA20680D96A842CDE9F3
:104B20000B660A96099601D00EB070BD002043F6C0
:104B300030010890C4F202010A6842F020020A60C3
:104B4000096801F02001089108994021099102218A
:104B5000CDE90A100C9003200D9005F5504009A9ED
:104B6000FEF7BEF90EB070BD10B586B043F22C5002
:104B70000024C2F200004FF080414FF0FF32CDE937
:104B80000044C0E90014C0E9024204618461FFF7F7
:104B900075F8002818BFFDF7A9FA4FF40050CDE9C9
:104BA000020443F22C50C2F2000002A9CDE90444F1
:104BB000FFF7DCF9002818BFFDF798FA0020CDE9CF
:104BC000000043F22C50C2F200006946FEF7F8FFE5
:104BD000002818BFFDF78AFA06B010BD80B586B070
:104BE0002020009043F2745040F200420021C2F2B3
:104BF0000000C4F2000204234FF0530C0591CDE9EC
:104C000003110191C0E90023C0E9021C0161816127
:104C1000FFF734F8002818BFFDF768FA4FF480500A
:104C2000029043F27450C2F2000002A9FFF79EF90D
:104C3000002818BFFDF75AFA43F27450C2F2000080
:104C40006946FEF7BDFF002818BFFDF74FFA06B012
:104C500080BD000080B586B043F2BC5040F6000233
:104C60000021C2F20000C4F2000242F20F7342F2CD
:104C7000CF0C0591CDE90311CDE90011C0E9002366
:104C8000C0E9021C01618161FEF7F8FF002818BF2E
:104C9000FDF72CFA4FF48050029043F2BC50C2F260
:104CA000000002A9FFF762F9002818BFFDF71EFAFD
:104CB00043F2BC50C2F200006946FEF781FF0028B3
:104CC00018BFFDF713FA06B080BD000080B586B0AE
:104CD0002020009043F24C6040F200420021C2F2DA
:104CE0000000C4F2010263234FF0530C0591CDE99B
:104CF00003110191C0E90023C0E9021CC0E90411BD
:104D00008161FEF7BBFF002818BFFDF7EFF94FF4F4
:104D10008050029043F24C60C2F2000002A9FFF7FB
:104D200025F9002818BFFDF7E1F943F24C60C2F203
:104D300000006946FEF744FF002818BFFDF7D6F9CA
:104D400006B080BD80B543F2946041F20001C2F22A
:104D50000000C4F2010100234FF00C0C4FF4E132CB
:104D600080E80E00C0E90333C0E905C3C361FFF763
:104D70005FFC002808BF80BDBDE88040FDF7B6B9E4
:104D8000FEE70000FEE70000000000000000000059
:104D9000EFF30980BFF36F8F154B1A681EF0100FE9
:104DA00008BF20ED108A20E9F04F10602DE90900BE
:104DB0004FF0500080F31188BFF34F8FBFF36F8F18
:104DC0003FF04AFF4FF0000080F31188BDE8090072
:104DD00019680868B0E8F04F1EF0100F08BFB0EC7B
:104DE000108A80F30988BFF36F8F704700BF00BF40
:104DF0009C1D0020000000000000000000000000DA
:104E0000074B19680868B0E8F04F80F30988BFF3D2
:104E10006F8F4FF0000080F31188704700BF00BF14
:104E20009C1D0020012035F0EFFEFBE780B54EF21F
:104E30001000CEF20000006840F0AAFD012808BF73
:104E400080BDBDE8804040F0F3B8000070B592B07E
:104E500006AC20463021FBF763FD002543F64000F9
:104E60000595CDE90355CDE901550095C4F2020041
:104E70000168022641F080510160006800F0805016
:104E80000090009847F200000095C4F2000001680D
:104E900041F480410160006800F480400090009877
:104EA000092006904FF48030079001200B904FF4BA
:104EB00080000D9008200E904FF4A870CDE90F06E9
:104EC0000420119020460C96FEF732FB20B1EFF340
:104ED000108072B6FEE700BF0F20CDE901064FF447
:104EE000A05004904FF48050059001A8052103952F
:104EF000FEF7EEF920B1EFF3108072B6FEE700BFC7
:104F000012B070BD4EF68850CEF20000016841F438
:104F1000700101607047000080B543F2BC50C2F2DE
:104F20000000FFF7F5F82420C4F20000016841F604
:104F3000A862C2F2000211600021016080BD000081
:104F400043F20460C2F20000FFF7E2B810B540F689
:104F5000FF3E0368C4F2000E40F2004C7045C4F2FC
:104F6000010C25DCB0F1804F2FD040F20042C4F29A
:104F70000002904229D040F60002C4F200029042A2
:104F800023D041F6FF72C4F20002904227DC704544
:104F90003ADCB0F1804F5BD040F20042C4F2000234
:104FA000904255D040F60002C4F200024EE000BF2D
:104FB00040F60042C4F20002904206D0604504D0A0
:104FC0000022C4F201029042DBD14A6823F0700350
:104FD000134341F6FF72C4F200029042D7DD43F65C
:104FE000FF72C4F20102904220DC42F20002C4F2DD
:104FF000000290422CD00022C4F20102904227D03D
:10500000604525D028E000BF40F60042C4F200020F
:1050100090421DD041F60002C4F20002904217D027
:1050200041F60042C4F2000210E000BF44F2000268
:10503000C4F2010290420BD044F60002C4F2010215
:10504000904205D044F20042C4F20102904203D1E2
:10505000CA6823F44073134323F080024B69D1F8EC
:1050600000E08C681A430260C46240F48062C0F8B9
:1050700028E0624504BF096901630121416110BD57
:1050800010B586B000200590CDE90300CDE9010000
:10509000009043F63000C4F20200016841F20004BF
:1050A00041F0100101600068C4F2020400F0100039
:1050B000009000986C2001900120CDE902000220B0
:1050C000049001A92046FDF70BFF20460421012290
:1050D000FDF7DCFF204608210122FDF7D7FF20461F
:1050E00020210122FDF7D2FF204640210122FDF7B9
:1050F000CDFF06B010BD000070B59FED271AB1EED0
:10510000042A20EE011A81EE021A054600F0FD0085
:10511000B0FA80F0B4EE420A4009F1EE10FA41F222
:10512000000441F6A466C4F20204C2F20006BCEE1A
:10513000C11A11EE101AC8BF0021C1F3032242EABE
:10514000C0104030022D7070317001D2042104E093
:1051500005F0FE00022804D1082120460022FDF7B8
:1051600095FF7078FCF7F2FE3078FCF7EFFE022D29
:1051700006D2042120460122BDE87040FDF786BF1B
:1051800005F0FE00022818BF70BD0821204601224C
:10519000BDE87040FDF77ABF00F07F45B0B504462A
:1051A000006804F108030ECB0569194325F4405546
:1051B0002A4302616269E3691143C268194349F2F3
:1051C0000C639A431143C1604169A26921F44071A3
:1051D00041F20043114340F48062C4F201039A4259
:1051E000416103D1FEF75AF902E000BFFEF742F930
:1051F000E1694FF69C7563681922C0F6FF75B1F539
:10520000004FA0FB02011FD15A00DB0FFBF781F812
:1052100048F21F51C5F2EB11A0FB01235A0905F119
:10522000805302FB0300322303EBC000A0FB01010B
:105230004FF4F87000EA111000EB0210C1F34211B4
:10524000084421688860B0BD9A009B0FFBF761F8A5
:1052500048F21F51C5F2EB11A0FB01235A0902FBD2
:105260000500322303EB0010A0FB0101F02000EA4F
:10527000511000EB0210C1F343110844216888600B
:10528000B0BD0000FEE700009FED081A9FED082A60
:1052900020EE010A80EE020A40F6FF70BDEEC00A61
:1052A00010EE101A814238BF084670470000804552
:1052B00000404E459FED091A9FED092A20EE010A94
:1052C00080EE020ABDEEC00A10EE100A013081B273
:1052D00040F2FF30814238BF0846704700007A44F0
:1052E00000006B4300000000B0B510EE100A43F060
:1052F0001DFA044622A022460B460D46FBF782F813
:105300009FED170B204653EC102B294642F014FF5B
:105310009FED150B53EC102B42F00EFF9FED140B7D
:1053200053EC102B42F070FC42F006FE013080B2CC
:1053300040F2FF34A04238BF0446EB20604342F005
:1053400058FE9FED0D0B53EC102B42F05DFC024616
:105350000FA00B46FBF756F82046B0BD00BF00BFBC
:10536000B5FCC0559EA006400000000000408F40E4
:105370000000000000606D40C976BE9FDA18A640AC
:1053800056726D7320494E5055543A25660A0000F6
:1053900056726D73204F55545055543A25660A0085
:1053A0002DE9F04140F26004C2F200041646626B3F
:1053B0000D46218F0746104600229846FDF766FEEF
:1053C000E06BB4F840100022FDF760FE606B218FA7
:1053D0000022FDF75BFE60682189FA09FDF756FEA1
:1053E000606B218F0122FDF751FE606B218F00223F
:1053F000FDF74CFE60682189C7F38012FDF746FE79
:10540000606B218F0122FDF741FE606B218F00222E
:10541000FDF73CFE60682189C7F34012FDF736FEB8
:10542000606B218F0122FDF731FE606B218F00221E
:10543000FDF72CFE60682189C7F30012FDF726FEF8
:10544000606B218F0122FDF721FE606B218F00220E
:10545000FDF71CFE60682189C7F3C002FDF716FE48
:10546000606B218F0122FDF711FE606B218F0022FE
:10547000FDF70CFE60682189C7F38002FDF706FE88
:10548000606B218F0122FDF701FE606B218F0022EE
:10549000FDF7FCFD60682189C7F34002FDF7F6FDCA
:1054A000606B218F0122FDF7F1FD606B218F0022DF
:1054B000FDF7ECFD6068218907F00102FDF7E6FDCC
:1054C000606B218F0122FDF7E1FD606B218F0022CF
:1054D000FDF7DCFD002D00F08A80013E606B218F1E
:1054E00016F8017F0022FDF7D1FD60682189FA09D5
:1054F000FDF7CCFD606B218F0122FDF7C7FD606BCE
:10550000218F0022FDF7C2FD60682189C7F3801258
:10551000FDF7BCFD606B218F0122FDF7B7FD606BCD
:10552000218F0022FDF7B2FD60682189C7F3401288
:10553000FDF7ACFD606B218F0122FDF7A7FD606BCD
:10554000218F0022FDF7A2FD60682189C7F30012B8
:10555000FDF79CFD606B218F0122FDF797FD606BCD
:10556000218F0022FDF792FD60682189C7F3C002F8
:10557000FDF78CFD606B218F0122FDF787FD606BCD
:10558000218F0022FDF782FD60682189C7F3800228
:10559000FDF77CFD606B218F0122FDF777FD606BCD
:1055A000218F0022FDF772FD60682189C7F3400258
:1055B000FDF76CFD606B218F0122FDF767FD606BCD
:1055C000218F0022FDF762FD6068218907F001024A
:1055D000FDF75CFD606B218F0122FDF757FD606BCD
:1055E000218F0022FDF752FD013D7FF477AFB8F126
:1055F000010F0BD1606CB4F848100122FDF746FD95
:10560000606CB4F848100022FDF740FDE06BB4F880
:1056100040100122BDE8F041FDF738BDB0B541F6BC
:105620003C54C2F200042046442101F083FD48F6B8
:10563000D130C0F600001E21002234F053F841F6AC
:10564000E045C2F20005686001202870204601F0A4
:105650003BFD0146686829B134F048F90020287004
:10566000B0BD00BF34F032F900202870B0BD00009A
:105670002DE9F043B1F900E0B2F90470BE4511DC48
:10568000B1F904C0B2F90060B4450BDBB1F90250C6
:10569000B2F90640A54205DCB1F90680B2F9023044
:1056A000984503DAFF2358B2BDE8F083B64509DB1D
:1056B000AB4207DCBC4505DCA04503DC002358B247
:1056C000BDE8F0835E1B36B2012EA8EB05090BDBAB
:1056D000A0F800E04580A0F804C0C380D4884D88BD
:1056E000B1F80680012300E00023A9EB04062E4454
:1056F00036B2012E15DB0FFA88F627B2B74210DA60
:105700000E888F8805EB090800EBC30520F833608D
:105710006C80AF80A5F806804D88D488B1F80680EB
:105720000133B2F902602DB2AE42C8BF354626B28F
:105730000FFA88F4A642B8BF3446661B36B2012E73
:105740000E88ACEB0E0C10DBB2F800E0AEEB0607F7
:105750003FB2012F09DB00EBC30720F833607D80E7
:10576000A7F804E0FC800E8801339188ACEB0102BD
:10577000324412B2012A09DB06EB0C0200EBC3072C
:1057800020F8331001337D80BA80FC8058B2BDE828
:10579000F083000070B50346B1F90000B2F9004093
:1057A000B1F902C0B2F90250B1F904E0B2F90460F3
:1057B000A042B1F90610B2F90620C8BF0446AC45B4
:1057C0001C80C8BF6546B6455D80B8BF764691422D
:1057D0009E80B8BF0A460020B4424FF00001D8BFF7
:1057E00001219542D8BF01200840DA8070BD000039
:1057F0002DE9F04381B0B0F90070B1F900309F425B
:105800003EDBB0F90250B1F902309D4238DBB0F90D
:105810000460B1F904309E4232DCB0F90640B1F9BF
:10582000060084422CDC7AB36B468846084619464B
:10583000ADF80070ADF80250914600F099F8F8B15B
:10584000694640464A46ADF80060ADF8025000F0A7
:105850008FF8A8B1694640464A46ADF80070ADF8E9
:10586000024000F085F858B1694640464A46ADF816
:105870000060ADF8024000F07BF801B0BDE8F083B5
:10588000002001B0BDE8F083012001B0BDE8F08345
:10589000B0F90020B1F904309A4213DCB0F90420C9
:1058A000B1F900309A420DDBB0F90220B1F90630AF
:1058B0009A4207DCB0F90600B1F902108842A4BF91
:1058C00001207047002070472DE9F04381B0B0F906
:1058D0000460B1F900309E4211DBB0F90670B1F9F5
:1058E00002309F420BDBB0F90040B1F904309C421A
:1058F00005DCB0F90250B1F90600854204DD012053
:1059000001B0BDE8F08300BFFAB16B468846084697
:105910001946ADF80040ADF80250914600F028F865
:1059200098B9694640464A46ADF80060ADF8025065
:1059300000F01EF848B9694640464A46ADF80040B6
:10594000ADF8027000F014F820B1002001B0BDE8FD
:10595000F08300BF694640464A46ADF80060ADF8A6
:10596000027000F005F880F0010001B0BDE8F0839E
:105970002DE9F041B1F90030B0F90040A3420DDB50
:10598000B0F904E0734509DCB1F90210B0F902C0C6
:10599000614503DBB0F90650A94203DD0020BDE8F4
:1059A000F08100BF012A54DBAEEB0400013086B267
:1059B00000EBD63006B2A5EB0C00013087B200EB4D
:1059C000D73007B24FEA66087810B8EB670FB8BF58
:1059D00070109042A8BF1046021917B200EB0C02DB
:1059E000BB4216B2D8BFB14216DD2A1ABB4212B270
:1059F0002ADC914228DB07443FB23F1B07EBD777F5
:105A00007E1004EB6705084402EB67015B1B401A3C
:105A100006FB06F10EE000BF384400B2001B00EBAD
:105A2000D070421004EB60070CEB6000DB1B081A1F
:105A300002FB02F113FB03F210FB002200208A425A
:105A400098BF0120BDE8F081AEEB000424B2A34270
:105A500002DA0120BDE8F08191421BDAB142F8DCA4
:105A6000201A02B2AEEB020202EBD27200EB62002D
:105A70005710181A0CEB6202891A10FB00F007FB92
:105A800007F211FB01010020914298BF0120BDE8FF
:105A9000F08100BF271A3EB2AEEB060606EBD676C3
:105AA000751007EB6607084402EB6601DB1B401A22
:105AB00005FB05F1BEE7000070B5B1F90030B2F9A1
:105AC0000040B1F902C0B2F90250B1F904E0B2F9F4
:105AD0000460A342B1F90610B2F90620B8BF1C4613
